{
  "contractName": "PoolFactory",
  "abi": [
    {
      "inputs": [
        {
          "internalType": "bool",
          "name": "_isPublic",
          "type": "bool"
        },
        {
          "internalType": "address",
          "name": "_owner",
          "type": "address"
        }
      ],
      "stateMutability": "nonpayable",
      "type": "constructor"
    },
    {
      "anonymous": false,
      "inputs": [
        {
          "indexed": true,
          "internalType": "address",
          "name": "accountAddress",
          "type": "address"
        },
        {
          "indexed": false,
          "internalType": "uint256",
          "name": "amount",
          "type": "uint256"
        }
      ],
      "name": "LogDepositMade",
      "type": "event"
    },
    {
      "anonymous": false,
      "inputs": [
        {
          "indexed": false,
          "internalType": "string",
          "name": "",
          "type": "string"
        },
        {
          "indexed": false,
          "internalType": "uint256",
          "name": "",
          "type": "uint256"
        }
      ],
      "name": "MyLog",
      "type": "event"
    },
    {
      "inputs": [
        {
          "internalType": "address",
          "name": "",
          "type": "address"
        }
      ],
      "name": "balances",
      "outputs": [
        {
          "internalType": "uint256",
          "name": "",
          "type": "uint256"
        }
      ],
      "stateMutability": "view",
      "type": "function"
    },
    {
      "inputs": [
        {
          "internalType": "address",
          "name": "",
          "type": "address"
        }
      ],
      "name": "exists",
      "outputs": [
        {
          "internalType": "bool",
          "name": "",
          "type": "bool"
        }
      ],
      "stateMutability": "view",
      "type": "function"
    },
    {
      "inputs": [],
      "name": "owner",
      "outputs": [
        {
          "internalType": "address",
          "name": "",
          "type": "address"
        }
      ],
      "stateMutability": "view",
      "type": "function"
    },
    {
      "inputs": [
        {
          "internalType": "uint256",
          "name": "",
          "type": "uint256"
        }
      ],
      "name": "participantsList",
      "outputs": [
        {
          "internalType": "address",
          "name": "",
          "type": "address"
        }
      ],
      "stateMutability": "view",
      "type": "function"
    },
    {
      "inputs": [
        {
          "internalType": "uint256",
          "name": "amount",
          "type": "uint256"
        },
        {
          "internalType": "bool",
          "name": "redeemType",
          "type": "bool"
        },
        {
          "internalType": "address",
          "name": "_cErc20Contract",
          "type": "address"
        }
      ],
      "name": "redeemCErc20Tokens",
      "outputs": [
        {
          "internalType": "bool",
          "name": "",
          "type": "bool"
        }
      ],
      "stateMutability": "nonpayable",
      "type": "function"
    },
    {
      "inputs": [
        {
          "internalType": "uint256",
          "name": "amount",
          "type": "uint256"
        },
        {
          "internalType": "bool",
          "name": "redeemType",
          "type": "bool"
        },
        {
          "internalType": "address",
          "name": "_cEtherContract",
          "type": "address"
        }
      ],
      "name": "redeemCEth",
      "outputs": [
        {
          "internalType": "bool",
          "name": "",
          "type": "bool"
        }
      ],
      "stateMutability": "nonpayable",
      "type": "function"
    },
    {
      "inputs": [
        {
          "internalType": "address",
          "name": "_erc20Contract",
          "type": "address"
        },
        {
          "internalType": "address",
          "name": "_cErc20Contract",
          "type": "address"
        },
        {
          "internalType": "uint256",
          "name": "_numTokensToSupply",
          "type": "uint256"
        }
      ],
      "name": "supplyErc20ToCompound",
      "outputs": [
        {
          "internalType": "uint256",
          "name": "",
          "type": "uint256"
        }
      ],
      "stateMutability": "nonpayable",
      "type": "function"
    },
    {
      "inputs": [
        {
          "internalType": "address payable",
          "name": "_cEtherContract",
          "type": "address"
        }
      ],
      "name": "supplyEthToCompound",
      "outputs": [
        {
          "internalType": "bool",
          "name": "",
          "type": "bool"
        }
      ],
      "stateMutability": "payable",
      "type": "function"
    },
    {
      "stateMutability": "payable",
      "type": "receive"
    },
    {
      "inputs": [
        {
          "internalType": "address",
          "name": "participant",
          "type": "address"
        }
      ],
      "name": "enroll",
      "outputs": [
        {
          "internalType": "uint256",
          "name": "",
          "type": "uint256"
        }
      ],
      "stateMutability": "nonpayable",
      "type": "function"
    },
    {
      "inputs": [],
      "name": "deposit",
      "outputs": [
        {
          "internalType": "uint256",
          "name": "",
          "type": "uint256"
        }
      ],
      "stateMutability": "payable",
      "type": "function"
    },
    {
      "inputs": [
        {
          "internalType": "address payable",
          "name": "_cEtherContract",
          "type": "address"
        }
      ],
      "name": "deposit_and_invest_compound",
      "outputs": [
        {
          "internalType": "uint256",
          "name": "",
          "type": "uint256"
        }
      ],
      "stateMutability": "payable",
      "type": "function"
    },
    {
      "inputs": [
        {
          "internalType": "uint256",
          "name": "withdrawAmount",
          "type": "uint256"
        }
      ],
      "name": "withdraw",
      "outputs": [
        {
          "internalType": "uint256",
          "name": "remainingBal",
          "type": "uint256"
        }
      ],
      "stateMutability": "nonpayable",
      "type": "function"
    },
    {
      "inputs": [
        {
          "internalType": "uint256",
          "name": "withdrawAmount",
          "type": "uint256"
        },
        {
          "internalType": "bool",
          "name": "redeemType",
          "type": "bool"
        },
        {
          "internalType": "address",
          "name": "_cEtherContract",
          "type": "address"
        }
      ],
      "name": "withdraw_and_redeem",
      "outputs": [
        {
          "internalType": "uint256",
          "name": "remainingBal",
          "type": "uint256"
        }
      ],
      "stateMutability": "nonpayable",
      "type": "function"
    },
    {
      "inputs": [],
      "name": "balance",
      "outputs": [
        {
          "internalType": "uint256",
          "name": "",
          "type": "uint256"
        }
      ],
      "stateMutability": "view",
      "type": "function"
    },
    {
      "inputs": [],
      "name": "depositsBalance",
      "outputs": [
        {
          "internalType": "uint256",
          "name": "",
          "type": "uint256"
        }
      ],
      "stateMutability": "view",
      "type": "function"
    },
    {
      "inputs": [],
      "name": "is_owner",
      "outputs": [
        {
          "internalType": "bool",
          "name": "",
          "type": "bool"
        }
      ],
      "stateMutability": "view",
      "type": "function"
    },
    {
      "inputs": [],
      "name": "get_owner",
      "outputs": [
        {
          "internalType": "address",
          "name": "",
          "type": "address"
        }
      ],
      "stateMutability": "view",
      "type": "function"
    },
    {
      "inputs": [],
      "name": "is_public",
      "outputs": [
        {
          "internalType": "bool",
          "name": "",
          "type": "bool"
        }
      ],
      "stateMutability": "view",
      "type": "function"
    },
    {
      "inputs": [
        {
          "internalType": "address",
          "name": "participant",
          "type": "address"
        }
      ],
      "name": "balanceParticipant",
      "outputs": [
        {
          "internalType": "uint256",
          "name": "",
          "type": "uint256"
        }
      ],
      "stateMutability": "view",
      "type": "function"
    },
    {
      "inputs": [
        {
          "internalType": "address",
          "name": "participant",
          "type": "address"
        }
      ],
      "name": "is_allowed",
      "outputs": [
        {
          "internalType": "bool",
          "name": "",
          "type": "bool"
        }
      ],
      "stateMutability": "view",
      "type": "function"
    },
    {
      "inputs": [],
      "name": "getParticipantList",
      "outputs": [
        {
          "internalType": "address[]",
          "name": "",
          "type": "address[]"
        }
      ],
      "stateMutability": "view",
      "type": "function"
    }
  ],
  "bytecode": "0x608060405234801561001057600080fd5b5060405161162338038061162383398101604081905261002f916100ed565b600080546001600160a01b03928316610100908102610100600160a81b031995151560ff19938416179590951694909417808355849004831682526002602090815260408084208490558354869004851684526003909152822080549091166001908117909155815460ff60a81b191680835581548083018355919092527fb10e2d527612073b26eecdfd717e6a320cf44b4afac2b0732d9fcbe2b7fa0cf60180546001600160a01b03191693909104909116919091179055610135565b600080604083850312156100ff578182fd5b8251801515811461010e578283fd5b60208401519092506001600160a01b038116811461012a578182fd5b809150509250929050565b6114df806101446000396000f3fe60806040526004361061012e5760003560e01c80639b6d29ab116100ab578063ba83d1a01161006f578063ba83d1a0146102ee578063c6fb50141461030e578063d0ace48e1461030e578063d0e30db01461032e578063ed214fff14610336578063f6a3d24e1461035857610135565b80639b6d29ab1461026f578063a82ffd8814610291578063ad721ff6146102a4578063b34d7e8f146102b9578063b69ef8a8146102d957610135565b80632e1a7d4d116100f25780632e1a7d4d146101e75780633549d8fb146102075780633b7ba25f146102275780636d12856d146102475780638da5cb5b1461025a57610135565b806305488a2c1461013a5780630ac298dc14610170578063138fbe711461019257806327e235e3146101a75780632820aece146101c757610135565b3661013557005b600080fd5b34801561014657600080fd5b5061015a61015536600461104c565b610378565b60405161016791906113da565b60405180910390f35b34801561017c57600080fd5b50610185610393565b604051610167919061113c565b34801561019e57600080fd5b5061015a6103a8565b3480156101b357600080fd5b5061015a6101c236600461104c565b610436565b3480156101d357600080fd5b506101856101e23660046110cb565b610448565b3480156101f357600080fd5b5061015a6102023660046110cb565b610472565b34801561021357600080fd5b5061015a6102223660046110fb565b61055c565b34801561023357600080fd5b5061015a61024236600461106f565b61064c565b61015a61025536600461104c565b61089e565b34801561026657600080fd5b50610185610a12565b34801561027b57600080fd5b50610284610a26565b60405161016791906111b6565b61028461029f36600461104c565b610a2f565b3480156102b057600080fd5b50610284610bcc565b3480156102c557600080fd5b506102846102d436600461104c565b610be2565b3480156102e557600080fd5b5061015a610c05565b3480156102fa57600080fd5b5061015a61030936600461104c565b610c18565b34801561031a57600080fd5b506102846103293660046110fb565b610d2e565b61015a610e74565b34801561034257600080fd5b5061034b610fd5565b6040516101679190611169565b34801561036457600080fd5b5061028461037336600461104c565b611037565b6001600160a01b031660009081526002602052604090205490565b60005461010090046001600160a01b03165b90565b6001546000906103ba575060006103a5565b6000805b6001548110156104305760026000600183815481106103ed57634e487b7160e01b600052603260045260246000fd5b60009182526020808320909101546001600160a01b0316835282019290925260400190205461041c90836113e3565b91508061042881611412565b9150506103be565b50905090565b60026020526000908152604090205481565b6001818154811061045857600080fd5b6000918252602090912001546001600160a01b0316905081565b3360009081526003602052604081205460ff1615156001146104af5760405162461bcd60e51b81526004016104a69061134e565b60405180910390fd5b336000908152600260205260409020548211156104de5760405162461bcd60e51b81526004016104a690611300565b3360009081526002602052604090205482116105475733600090815260026020526040812080548492906105139084906113fb565b9091555050604051339083156108fc029084906000818181858888f19350505050158015610545573d6000803e3d6000fd5b505b50503360009081526002602052604090205490565b3360009081526003602052604081205460ff1615156001146105905760405162461bcd60e51b81526004016104a69061134e565b336000908152600260205260409020548411156105bf5760405162461bcd60e51b81526004016104a690611300565b6105ca848484610d2e565b503360009081526002602052604090205484116106345733600090815260026020526040812080548692906106009084906113fb565b9091555050604051339085156108fc029086906000818181858888f19350505050158015610632573d6000803e3d6000fd5b505b50336000908152600260205260409020549392505050565b60008084905060008490506000816001600160a01b031663bd6d894d6040518163ffffffff1660e01b8152600401602060405180830381600087803b15801561069457600080fd5b505af11580156106a8573d6000803e3d6000fd5b505050506040513d601f19601f820116820180604052508101906106cc91906110e3565b905060008051602061148a833981519152816040516106eb9190611282565b60405180910390a16000826001600160a01b031663ae9d70b06040518163ffffffff1660e01b8152600401602060405180830381600087803b15801561073057600080fd5b505af1158015610744573d6000803e3d6000fd5b505050506040513d601f19601f8201168201806040525081019061076891906110e3565b905060008051602061148a8339815191528160405161078791906112c1565b60405180910390a160405163095ea7b360e01b81526001600160a01b0385169063095ea7b3906107bd908a908a90600401611150565b602060405180830381600087803b1580156107d757600080fd5b505af11580156107eb573d6000803e3d6000fd5b505050506040513d601f19601f8201168201806040525081019061080f91906110af565b5060405163140e25ad60e31b81526000906001600160a01b0385169063a0712d689061083f908a906004016113da565b602060405180830381600087803b15801561085957600080fd5b505af115801561086d573d6000803e3d6000fd5b505050506040513d601f19601f8201168201806040525081019061089191906110e3565b9998505050505050505050565b3360009081526003602052604081205460ff161515600114806108c8575060005460ff1615156001145b6108e45760405162461bcd60e51b81526004016104a69061134e565b6108ed33610be2565b61098d5760008054600160a81b900460ff1690601561090b8361142d565b825460ff9182166101009390930a9283029190920219909116179055506001805480820182557fb10e2d527612073b26eecdfd717e6a320cf44b4afac2b0732d9fcbe2b7fa0cf60180546001600160a01b03191633908117909155600090815260026020908152604080832083905560039091529020805460ff191690911790555b33600090815260026020526040812080543492906109ac9084906113e3565b909155506109bb905082610a2f565b50336001600160a01b03167fa8126f7572bb1fdeae5b5aa9ec126438b91f658a07873f009d041ae690f3a193346040516109f591906113da565b60405180910390a250503360009081526002602052604090205490565b60005461010090046001600160a01b031681565b60005460ff1690565b6000808290506000816001600160a01b031663bd6d894d6040518163ffffffff1660e01b8152600401602060405180830381600087803b158015610a7257600080fd5b505af1158015610a86573d6000803e3d6000fd5b505050506040513d601f19601f82011682018060405250810190610aaa91906110e3565b905060008051602061148a83398151915281604051610ac9919061120d565b60405180910390a16000826001600160a01b031663ae9d70b06040518163ffffffff1660e01b8152600401602060405180830381600087803b158015610b0e57600080fd5b505af1158015610b22573d6000803e3d6000fd5b505050506040513d601f19601f82011682018060405250810190610b4691906110e3565b905060008051602061148a83398151915281604051610b65919061139b565b60405180910390a1826001600160a01b0316631249c58b346040518263ffffffff1660e01b81526004016000604051808303818588803b158015610ba857600080fd5b505af1158015610bbc573d6000803e3d6000fd5b5060019998505050505050505050565b60005461010090046001600160a01b0316331490565b6001600160a01b031660009081526003602052604090205460ff16151560011490565b3360009081526002602052604090205490565b6000805461010090046001600160a01b03163314610c485760405162461bcd60e51b81526004016104a690611373565b6001600160a01b03821660009081526003602052604090205460ff1615610c815760405162461bcd60e51b81526004016104a690611258565b60008054600160a81b900460ff16906015610c9b8361142d565b82546101009290920a60ff81810219909316919092169190910217905550506001805480820182557fb10e2d527612073b26eecdfd717e6a320cf44b4afac2b0732d9fcbe2b7fa0cf60180546001600160a01b0319166001600160a01b039390931692831790556000918252600260208181526040808520858155600383529420805460ff191690931790925590525490565b6000818160018515151415610dc25760405163db006a7560e01b81526001600160a01b0383169063db006a7590610d699089906004016113da565b602060405180830381600087803b158015610d8357600080fd5b505af1158015610d97573d6000803e3d6000fd5b505050506040513d601f19601f82011682018060405250810190610dbb91906110e3565b9050610e43565b60405163852a12e360e01b81526001600160a01b0383169063852a12e390610dee9089906004016113da565b602060405180830381600087803b158015610e0857600080fd5b505af1158015610e1c573d6000803e3d6000fd5b505050506040513d601f19601f82011682018060405250810190610e4091906110e3565b90505b60008051602061148a83398151915281604051610e6091906111c1565b60405180910390a150600195945050505050565b3360009081526003602052604081205460ff16151560011480610e9e575060005460ff1615156001145b610eba5760405162461bcd60e51b81526004016104a69061134e565b610ec333610be2565b610f635760008054600160a81b900460ff16906015610ee18361142d565b825460ff9182166101009390930a9283029190920219909116179055506001805480820182557fb10e2d527612073b26eecdfd717e6a320cf44b4afac2b0732d9fcbe2b7fa0cf60180546001600160a01b03191633908117909155600090815260026020908152604080832083905560039091529020805460ff191690911790555b3360009081526002602052604081208054349290610f829084906113e3565b909155505060405133907fa8126f7572bb1fdeae5b5aa9ec126438b91f658a07873f009d041ae690f3a19390610fb99034906113da565b60405180910390a2503360009081526002602052604090205490565b6060600180548060200260200160405190810160405280929190818152602001828054801561102d57602002820191906000526020600020905b81546001600160a01b0316815260019091019060200180831161100f575b5050505050905090565b60036020526000908152604090205460ff1681565b60006020828403121561105d578081fd5b813561106881611463565b9392505050565b600080600060608486031215611083578182fd5b833561108e81611463565b9250602084013561109e81611463565b929592945050506040919091013590565b6000602082840312156110c0578081fd5b81516110688161147b565b6000602082840312156110dc578081fd5b5035919050565b6000602082840312156110f4578081fd5b5051919050565b60008060006060848603121561110f578283fd5b8335925060208401356111218161147b565b9150604084013561113181611463565b809150509250925092565b6001600160a01b0391909116815260200190565b6001600160a01b03929092168252602082015260400190565b6020808252825182820181905260009190848201906040850190845b818110156111aa5783516001600160a01b031683529284019291840191600101611185565b50909695505050505050565b901515815260200190565b60408082526024908201527f49662074686973206973206e6f7420302c2074686572652077617320616e2065606082015263393937b960e11b6080820152602081019190915260a00190565b60408082526023908201527f45786368616e6765205261746520287363616c656420757020627920316531386060820152620149d160ed1b6080820152602081019190915260a00190565b60208082526010908201526f105b1c9958591e48195b9c9bdb1b195960821b604082015260600190565b6040808252601b908201527f45786368616e6765205261746520287363616c6564207570293a2000000000006060820152602081019190915260800190565b60408082526018908201527f537570706c7920526174653a20287363616c65642075702900000000000000006060820152602081019190915260800190565b6020808252602e908201527f4572726f7220616d6f756e742c2063616e2774207769746864726177206d6f7260408201526d19481d1a185b8819195c1bdcda5d60921b606082015260800190565b6020808252600b908201526a139bdd08185b1b1bddd95960aa1b604082015260600190565b6020808252600e908201526d139bdd08185d5d1a1bdc9a5e995960921b604082015260600190565b604080825260209082018190527f537570706c7920526174653a20287363616c6564207570206279203165313829606083015281019190915260800190565b90815260200190565b600082198211156113f6576113f661144d565b500190565b60008282101561140d5761140d61144d565b500390565b60006000198214156114265761142661144d565b5060010190565b600060ff821660ff8114156114445761144461144d565b60010192915050565b634e487b7160e01b600052601160045260246000fd5b6001600160a01b038116811461147857600080fd5b50565b801515811461147857600080fdfe8d1cced004452bd270777a8c670f9f7e7c4fdde56f2db331fe289d39dc2624ada26469706673582212202cf01a25220102a032c2d2fc2e8eecbf7437aef7c1fa3301f58ae7a3b283c66764736f6c63430008010033",
  "immutableReferences": {},
  "source": "// SPDX-License-Identifier: MIT\npragma solidity >=0.8.0;\n\nimport \"./compound/Compound.sol\";\n\ncontract PoolFactory is Compound {\n    bool private isPublic;\n    address public owner;\n    uint8 private participantCount;\n    address[] public participantsList;\n    mapping(address => uint256) public balances;\n    mapping(address => bool) public exists;\n\n    // Log the event about a deposit being made by an address and its amount\n    event LogDepositMade(address indexed accountAddress, uint256 amount);\n\n    constructor(bool _isPublic, address _owner) {\n        /* Set the owner to the creator of this contract */\n        isPublic = _isPublic;\n        owner = _owner;\n        balances[owner] = 0;\n        exists[owner] = true;\n        participantCount = 0;\n        participantsList.push(owner);\n    }\n\n    /// @notice Enroll a customer with the bank,\n    /// Only the owner can enroll a participant\n    /// @return The balance of the user after enrolling\n    function enroll(address participant) public returns (uint256) {\n        require(msg.sender == owner, \"Not authorized\");\n        require(exists[participant] == false, \"Already enrolled\");\n        participantCount++;\n        participantsList.push(participant);\n        balances[participant] = 0;\n        exists[participant] = true;\n        return balances[participant];\n    }\n\n    /// @notice Deposit ether into bank, requires method is \"payable\"\n    /// @return The balance of the user after the deposit is made\n    function deposit() public payable returns (uint256) {\n        require(exists[msg.sender] == true || isPublic == true, \"Not allowed\");\n        if (is_allowed(msg.sender) == false) {\n            participantCount++;\n            participantsList.push(msg.sender);\n            balances[msg.sender] = 0;\n            exists[msg.sender] = true;\n        }\n        balances[msg.sender] += msg.value;\n        emit LogDepositMade(msg.sender, msg.value);\n        return balances[msg.sender];\n    }\n\n    function deposit_and_invest_compound(address payable _cEtherContract)\n        public\n        payable\n        returns (uint256)\n    {\n        require(exists[msg.sender] == true || isPublic == true, \"Not allowed\");\n        if (is_allowed(msg.sender) == false) {\n            participantCount++;\n            participantsList.push(msg.sender);\n            balances[msg.sender] = 0;\n            exists[msg.sender] = true;\n        }\n        balances[msg.sender] += msg.value;\n        supplyEthToCompound(_cEtherContract);\n        emit LogDepositMade(msg.sender, msg.value);\n        return balances[msg.sender];\n    }\n\n    /// @notice Withdraw ether from bank\n    /// @return remainingBal : the balance remaining for the user\n    function withdraw(uint256 withdrawAmount)\n        public\n        returns (uint256 remainingBal)\n    {\n        require(exists[msg.sender] == true, \"Not allowed\");\n        require(withdrawAmount <= balances[msg.sender], \"Error amount, can't withdraw more than deposit\");\n        // Check enough balance available, otherwise just return balance\n        if (withdrawAmount <= balances[msg.sender]) {\n            balances[msg.sender] -= withdrawAmount;\n            payable(msg.sender).transfer(withdrawAmount);\n        }\n        return balances[msg.sender];\n    }\n\n    function withdraw_and_redeem(uint256 withdrawAmount, bool redeemType,\n        address _cEtherContract)\n        public\n        returns (uint256 remainingBal)\n    {\n        require(exists[msg.sender] == true, \"Not allowed\");\n        require(withdrawAmount <= balances[msg.sender], \"Error amount, can't withdraw more than deposit\");\n        // Check enough balance available, otherwise just return balance\n        redeemCEth(withdrawAmount, redeemType, _cEtherContract);\n        if (withdrawAmount <= balances[msg.sender]) {\n            balances[msg.sender] -= withdrawAmount;\n            payable(msg.sender).transfer(withdrawAmount);\n        }\n        return balances[msg.sender];\n    }\n\n    /// @notice Just reads balance of the account requesting, so \"constant\"\n    /// @return The balance of the user\n    function balance() public view returns (uint256) {\n        return balances[msg.sender];\n    }\n\n    /// @return The balance of the Pool contract\n    function depositsBalance() public view returns (uint256) {\n        if (participantsList.length == 0) {\n            return 0;\n        }\n        uint256 res = 0;\n        for (uint256 index = 0; index < participantsList.length; index++) {\n            res += balances[participantsList[index]];\n        }\n        return res;\n    }\n\n    function is_owner() public view returns (bool) {\n        return owner == msg.sender;\n    }\n\n    function get_owner() public view returns (address) {\n        return owner;\n    }\n\n    function is_public() public view returns(bool) {\n        return isPublic;\n    }\n\n    function balanceParticipant(address participant)\n        public\n        view\n        returns (uint256)\n    {\n        return balances[participant];\n    }\n\n    function is_allowed(address participant) public view returns (bool) {\n        return exists[participant] == true;\n    }\n\n    /// @return the participant list\n    function getParticipantList() public view returns (address[] memory) {\n        return participantsList;\n    }\n}\n",
  "sourcePath": "/home/eddine/Documents/project/blockchain/Ohreee/pool-contracts/contracts/PoolFactory.sol",
  "compiler": {
    "name": "solc",
    "version": "0.8.1+commit.df193b15.Emscripten.clang"
  },
  "schemaVersion": "3.3.2",
  "updatedAt": "2021-04-18T23:44:31.379Z",
  "devdoc": {
    "kind": "dev",
    "methods": {
      "balance()": {
        "returns": {
          "_0": "The balance of the user"
        }
      },
      "deposit()": {
        "returns": {
          "_0": "The balance of the user after the deposit is made"
        }
      },
      "depositsBalance()": {
        "returns": {
          "_0": "The balance of the Pool contract"
        }
      },
      "enroll(address)": {
        "returns": {
          "_0": "The balance of the user after enrolling"
        }
      },
      "getParticipantList()": {
        "returns": {
          "_0": "the participant list"
        }
      },
      "withdraw(uint256)": {
        "returns": {
          "remainingBal": ": the balance remaining for the user"
        }
      }
    },
    "version": 1
  },
  "userdoc": {
    "kind": "user",
    "methods": {
      "balance()": {
        "notice": "Just reads balance of the account requesting, so \"constant\""
      },
      "deposit()": {
        "notice": "Deposit ether into bank, requires method is \"payable\""
      },
      "enroll(address)": {
        "notice": "Enroll a customer with the bank, Only the owner can enroll a participant"
      },
      "withdraw(uint256)": {
        "notice": "Withdraw ether from bank"
      }
    },
    "version": 1
  }
}