{
  "contractName": "PoolRecorder",
  "abi": [
    {
      "anonymous": false,
      "inputs": [
        {
          "indexed": false,
          "internalType": "address",
          "name": "poolAddress",
          "type": "address"
        }
      ],
      "name": "PoolAdded",
      "type": "event"
    },
    {
      "inputs": [
        {
          "internalType": "address",
          "name": "",
          "type": "address"
        }
      ],
      "name": "poolRecorded",
      "outputs": [
        {
          "internalType": "string",
          "name": "name",
          "type": "string"
        },
        {
          "internalType": "string",
          "name": "description",
          "type": "string"
        },
        {
          "internalType": "address",
          "name": "owner",
          "type": "address"
        },
        {
          "internalType": "address",
          "name": "PoolAddress",
          "type": "address"
        },
        {
          "internalType": "bool",
          "name": "visible",
          "type": "bool"
        }
      ],
      "stateMutability": "view",
      "type": "function",
      "constant": true
    },
    {
      "inputs": [
        {
          "internalType": "string",
          "name": "_name",
          "type": "string"
        },
        {
          "internalType": "string",
          "name": "_description",
          "type": "string"
        },
        {
          "internalType": "bool",
          "name": "_visible",
          "type": "bool"
        },
        {
          "internalType": "address",
          "name": "_owner",
          "type": "address"
        }
      ],
      "name": "createPool",
      "outputs": [
        {
          "internalType": "address",
          "name": "",
          "type": "address"
        }
      ],
      "stateMutability": "nonpayable",
      "type": "function"
    },
    {
      "inputs": [
        {
          "internalType": "address",
          "name": "poolAddress",
          "type": "address"
        }
      ],
      "name": "removePool",
      "outputs": [],
      "stateMutability": "nonpayable",
      "type": "function"
    },
    {
      "inputs": [],
      "name": "getListPools",
      "outputs": [
        {
          "internalType": "address[]",
          "name": "",
          "type": "address[]"
        }
      ],
      "stateMutability": "view",
      "type": "function",
      "constant": true
    },
    {
      "inputs": [
        {
          "internalType": "address",
          "name": "poolAddress",
          "type": "address"
        }
      ],
      "name": "getPoolInfo",
      "outputs": [
        {
          "components": [
            {
              "internalType": "string",
              "name": "name",
              "type": "string"
            },
            {
              "internalType": "string",
              "name": "description",
              "type": "string"
            },
            {
              "internalType": "address",
              "name": "owner",
              "type": "address"
            },
            {
              "internalType": "address",
              "name": "PoolAddress",
              "type": "address"
            },
            {
              "internalType": "bool",
              "name": "visible",
              "type": "bool"
            }
          ],
          "internalType": "struct PoolRecorder.Pool",
          "name": "",
          "type": "tuple"
        }
      ],
      "stateMutability": "view",
      "type": "function",
      "constant": true
    }
  ],
  "bytecode": "0x608060405234801561001057600080fd5b5061265a806100206000396000f3fe60806040523480156200001157600080fd5b50600436106200005e5760003560e01c806306bfa93814620000635780633b7d094614620000995780637197092f14620000b9578063995632ae14620000ef578063ab8a10771462000111575b600080fd5b6200008160048036038101906200007b919062000c53565b6200014b565b60405162000090919062000fc7565b60405180910390f35b620000b76004803603810190620000b1919062000c53565b620003a1565b005b620000d76004803603810190620000d1919062000c7f565b620005e3565b604051620000e6919062000eee565b60405180910390f35b620000f96200063f565b60405162000108919062000f0b565b60405180910390f35b6200012f600480360381019062000129919062000c53565b620006cf565b6040516200014295949392919062000f5c565b60405180910390f35b6200015562000a98565b600160008373ffffffffffffffffffffffffffffffffffffffff1673ffffffffffffffffffffffffffffffffffffffff1681526020019081526020016000206040518060a0016040529081600082018054620001b1906200117a565b80601f0160208091040260200160405190810160405280929190818152602001828054620001df906200117a565b8015620002305780601f10620002045761010080835404028352916020019162000230565b820191906000526020600020905b8154815290600101906020018083116200021257829003601f168201915b505050505081526020016001820180546200024b906200117a565b80601f016020809104026020016040519081016040528092919081815260200182805462000279906200117a565b8015620002ca5780601f106200029e57610100808354040283529160200191620002ca565b820191906000526020600020905b815481529060010190602001808311620002ac57829003601f168201915b505050505081526020016002820160009054906101000a900473ffffffffffffffffffffffffffffffffffffffff1673ffffffffffffffffffffffffffffffffffffffff1673ffffffffffffffffffffffffffffffffffffffff1681526020016003820160009054906101000a900473ffffffffffffffffffffffffffffffffffffffff1673ffffffffffffffffffffffffffffffffffffffff1673ffffffffffffffffffffffffffffffffffffffff1681526020016003820160149054906101000a900460ff1615151515815250509050919050565b60005b600080549050811015620005df578173ffffffffffffffffffffffffffffffffffffffff166000828154811062000404577f4e487b7100000000000000000000000000000000000000000000000000000000600052603260045260246000fd5b9060005260206000200160009054906101000a900473ffffffffffffffffffffffffffffffffffffffff1673ffffffffffffffffffffffffffffffffffffffff161415620005c95760006001600080549050620004629190620010b0565b815481106200049a577f4e487b7100000000000000000000000000000000000000000000000000000000600052603260045260246000fd5b9060005260206000200160009054906101000a900473ffffffffffffffffffffffffffffffffffffffff166000828154811062000500577f4e487b7100000000000000000000000000000000000000000000000000000000600052603260045260246000fd5b9060005260206000200160006101000a81548173ffffffffffffffffffffffffffffffffffffffff021916908373ffffffffffffffffffffffffffffffffffffffff160217905550600060016000805490506200055e9190620010b0565b8154811062000596577f4e487b7100000000000000000000000000000000000000000000000000000000600052603260045260246000fd5b9060005260206000200160006101000a81549073ffffffffffffffffffffffffffffffffffffffff0219169055620005df565b8080620005d690620011e6565b915050620003a4565b5050565b600080600183604051620005f79062000af5565b6200060492919062000f2f565b604051809103906000f08015801562000621573d6000803e3d6000fd5b50905062000633813388888862000872565b80915050949350505050565b60606000805480602002602001604051908101604052809291908181526020018280548015620006c557602002820191906000526020600020905b8160009054906101000a900473ffffffffffffffffffffffffffffffffffffffff1673ffffffffffffffffffffffffffffffffffffffff16815260200190600101908083116200067a575b5050505050905090565b6001602052806000526040600020600091509050806000018054620006f4906200117a565b80601f016020809104026020016040519081016040528092919081815260200182805462000722906200117a565b8015620007735780601f10620007475761010080835404028352916020019162000773565b820191906000526020600020905b8154815290600101906020018083116200075557829003601f168201915b5050505050908060010180546200078a906200117a565b80601f0160208091040260200160405190810160405280929190818152602001828054620007b8906200117a565b8015620008095780601f10620007dd5761010080835404028352916020019162000809565b820191906000526020600020905b815481529060010190602001808311620007eb57829003601f168201915b5050505050908060020160009054906101000a900473ffffffffffffffffffffffffffffffffffffffff16908060030160009054906101000a900473ffffffffffffffffffffffffffffffffffffffff16908060030160149054906101000a900460ff16905085565b6000859080600181540180825580915050600190039060005260206000200160009091909190916101000a81548173ffffffffffffffffffffffffffffffffffffffff021916908373ffffffffffffffffffffffffffffffffffffffff1602179055506040518060a001604052808481526020018381526020018573ffffffffffffffffffffffffffffffffffffffff1681526020018673ffffffffffffffffffffffffffffffffffffffff168152602001821515815250600160008773ffffffffffffffffffffffffffffffffffffffff1673ffffffffffffffffffffffffffffffffffffffff16815260200190815260200160002060008201518160000190805190602001906200098792919062000b03565b506020820151816001019080519060200190620009a692919062000b03565b5060408201518160020160006101000a81548173ffffffffffffffffffffffffffffffffffffffff021916908373ffffffffffffffffffffffffffffffffffffffff16021790555060608201518160030160006101000a81548173ffffffffffffffffffffffffffffffffffffffff021916908373ffffffffffffffffffffffffffffffffffffffff16021790555060808201518160030160146101000a81548160ff0219169083151502179055509050507f73cca62ab1b520c9715bf4e6c71e3e518c754e7148f65102f43289a7df0efea68560405162000a89919062000eee565b60405180910390a15050505050565b6040518060a001604052806060815260200160608152602001600073ffffffffffffffffffffffffffffffffffffffff168152602001600073ffffffffffffffffffffffffffffffffffffffff1681526020016000151581525090565b61131e806200130783390190565b82805462000b11906200117a565b90600052602060002090601f01602090048101928262000b35576000855562000b81565b82601f1062000b5057805160ff191683800117855562000b81565b8280016001018555821562000b81579182015b8281111562000b8057825182559160200191906001019062000b63565b5b50905062000b90919062000b94565b5090565b5b8082111562000baf57600081600090555060010162000b95565b5090565b600062000bca62000bc48462001014565b62000feb565b90508281526020810184848401111562000be357600080fd5b62000bf084828562001135565b509392505050565b60008135905062000c0981620012d2565b92915050565b60008135905062000c2081620012ec565b92915050565b600082601f83011262000c3857600080fd5b813562000c4a84826020860162000bb3565b91505092915050565b60006020828403121562000c6657600080fd5b600062000c768482850162000bf8565b91505092915050565b6000806000806080858703121562000c9657600080fd5b600085013567ffffffffffffffff81111562000cb157600080fd5b62000cbf8782880162000c26565b945050602085013567ffffffffffffffff81111562000cdd57600080fd5b62000ceb8782880162000c26565b935050604062000cfe8782880162000c0f565b925050606062000d118782880162000bf8565b91505092959194509250565b600062000d2b838362000d37565b60208301905092915050565b62000d4281620010eb565b82525050565b62000d5381620010eb565b82525050565b600062000d66826200105a565b62000d7281856200107d565b935062000d7f836200104a565b8060005b8381101562000db657815162000d9a888262000d1d565b975062000da78362001070565b92505060018101905062000d83565b5085935050505092915050565b62000dce81620010ff565b82525050565b62000ddf81620010ff565b82525050565b600062000df28262001065565b62000dfe81856200108e565b935062000e1081856020860162001144565b62000e1b81620012c1565b840191505092915050565b600062000e338262001065565b62000e3f81856200109f565b935062000e5181856020860162001144565b62000e5c81620012c1565b840191505092915050565b600060a083016000830151848203600086015262000e86828262000de5565b9150506020830151848203602086015262000ea2828262000de5565b915050604083015162000eb9604086018262000d37565b50606083015162000ece606086018262000d37565b50608083015162000ee3608086018262000dc3565b508091505092915050565b600060208201905062000f05600083018462000d48565b92915050565b6000602082019050818103600083015262000f27818462000d59565b905092915050565b600060408201905062000f46600083018562000dd4565b62000f55602083018462000d48565b9392505050565b600060a082019050818103600083015262000f78818862000e26565b9050818103602083015262000f8e818762000e26565b905062000f9f604083018662000d48565b62000fae606083018562000d48565b62000fbd608083018462000dd4565b9695505050505050565b6000602082019050818103600083015262000fe3818462000e67565b905092915050565b600062000ff76200100a565b9050620010058282620011b0565b919050565b6000604051905090565b600067ffffffffffffffff82111562001032576200103162001292565b5b6200103d82620012c1565b9050602081019050919050565b6000819050602082019050919050565b600081519050919050565b600081519050919050565b6000602082019050919050565b600082825260208201905092915050565b600082825260208201905092915050565b600082825260208201905092915050565b6000620010bd826200112b565b9150620010ca836200112b565b925082821015620010e057620010df62001234565b5b828203905092915050565b6000620010f8826200110b565b9050919050565b60008115159050919050565b600073ffffffffffffffffffffffffffffffffffffffff82169050919050565b6000819050919050565b82818337600083830152505050565b60005b838110156200116457808201518184015260208101905062001147565b8381111562001174576000848401525b50505050565b600060028204905060018216806200119357607f821691505b60208210811415620011aa57620011a962001263565b5b50919050565b620011bb82620012c1565b810181811067ffffffffffffffff82111715620011dd57620011dc62001292565b5b80604052505050565b6000620011f3826200112b565b91507fffffffffffffffffffffffffffffffffffffffffffffffffffffffffffffffff82141562001229576200122862001234565b5b600182019050919050565b7f4e487b7100000000000000000000000000000000000000000000000000000000600052601160045260246000fd5b7f4e487b7100000000000000000000000000000000000000000000000000000000600052602260045260246000fd5b7f4e487b7100000000000000000000000000000000000000000000000000000000600052604160045260246000fd5b6000601f19601f8301169050919050565b620012dd81620010eb565b8114620012e957600080fd5b50565b620012f781620010ff565b81146200130357600080fd5b5056fe60806040523480156200001157600080fd5b506040516200131e3803806200131e833981810160405281019062000037919062000246565b816000806101000a81548160ff02191690831515021790555080600060016101000a81548173ffffffffffffffffffffffffffffffffffffffff021916908373ffffffffffffffffffffffffffffffffffffffff1602179055506000600260008060019054906101000a900473ffffffffffffffffffffffffffffffffffffffff1673ffffffffffffffffffffffffffffffffffffffff1673ffffffffffffffffffffffffffffffffffffffff168152602001908152602001600020819055506001600360008060019054906101000a900473ffffffffffffffffffffffffffffffffffffffff1673ffffffffffffffffffffffffffffffffffffffff1673ffffffffffffffffffffffffffffffffffffffff16815260200190815260200160002060006101000a81548160ff02191690831515021790555060008060156101000a81548160ff021916908360ff1602179055506001600060019054906101000a900473ffffffffffffffffffffffffffffffffffffffff169080600181540180825580915050600190039060005260206000200160009091909190916101000a81548173ffffffffffffffffffffffffffffffffffffffff021916908373ffffffffffffffffffffffffffffffffffffffff1602179055505050620002fb565b6000815190506200022981620002c7565b92915050565b6000815190506200024081620002e1565b92915050565b600080604083850312156200025a57600080fd5b60006200026a858286016200022f565b92505060206200027d8582860162000218565b9150509250929050565b60006200029482620002a7565b9050919050565b60008115159050919050565b600073ffffffffffffffffffffffffffffffffffffffff82169050919050565b620002d28162000287565b8114620002de57600080fd5b50565b620002ec816200029b565b8114620002f857600080fd5b50565b611013806200030b6000396000f3fe6080604052600436106100dd5760003560e01c8063ad721ff61161007f578063ba83d1a011610059578063ba83d1a0146102ea578063d0e30db014610327578063ed214fff14610345578063f6a3d24e14610370576100dd565b8063ad721ff614610257578063b34d7e8f14610282578063b69ef8a8146102bf576100dd565b80632820aece116100bb5780632820aece146101875780632e1a7d4d146101c45780638da5cb5b146102015780638fb7d7f81461022c576100dd565b806305488a2c146100e2578063138fbe711461011f57806327e235e31461014a575b600080fd5b3480156100ee57600080fd5b5061010960048036038101906101049190610cc7565b6103ad565b6040516101169190610e23565b60405180910390f35b34801561012b57600080fd5b506101346103f6565b6040516101419190610e23565b60405180910390f35b34801561015657600080fd5b50610171600480360381019061016c9190610cc7565b6103fe565b60405161017e9190610e23565b60405180910390f35b34801561019357600080fd5b506101ae60048036038101906101a99190610cf0565b610416565b6040516101bb9190610dcb565b60405180910390f35b3480156101d057600080fd5b506101eb60048036038101906101e69190610cf0565b610455565b6040516101f89190610e23565b60405180910390f35b34801561020d57600080fd5b506102166105df565b6040516102239190610dcb565b60405180910390f35b34801561023857600080fd5b50610241610605565b60405161024e9190610e23565b60405180910390f35b34801561026357600080fd5b5061026c61060a565b6040516102799190610e08565b60405180910390f35b34801561028e57600080fd5b506102a960048036038101906102a49190610cc7565b610662565b6040516102b69190610e08565b60405180910390f35b3480156102cb57600080fd5b506102d46106bf565b6040516102e19190610e23565b60405180910390f35b3480156102f657600080fd5b50610311600480360381019061030c9190610cc7565b610706565b60405161031e9190610e23565b60405180910390f35b61032f61093d565b60405161033c9190610e23565b60405180910390f35b34801561035157600080fd5b5061035a610bef565b6040516103679190610de6565b60405180910390f35b34801561037c57600080fd5b5061039760048036038101906103929190610cc7565b610c7d565b6040516103a49190610e08565b60405180910390f35b6000600260008373ffffffffffffffffffffffffffffffffffffffff1673ffffffffffffffffffffffffffffffffffffffff168152602001908152602001600020549050919050565b600047905090565b60026020528060005260406000206000915090505481565b6001818154811061042657600080fd5b906000526020600020016000915054906101000a900473ffffffffffffffffffffffffffffffffffffffff1681565b600060011515600360003373ffffffffffffffffffffffffffffffffffffffff1673ffffffffffffffffffffffffffffffffffffffff16815260200190815260200160002060009054906101000a900460ff161515146104b457600080fd5b600260003373ffffffffffffffffffffffffffffffffffffffff1673ffffffffffffffffffffffffffffffffffffffff1681526020019081526020016000205482116105985781600260003373ffffffffffffffffffffffffffffffffffffffff1673ffffffffffffffffffffffffffffffffffffffff16815260200190815260200160002060008282546105499190610ecd565b925050819055503373ffffffffffffffffffffffffffffffffffffffff166108fc839081150290604051600060405180830381858888f19350505050158015610596573d6000803e3d6000fd5b505b600260003373ffffffffffffffffffffffffffffffffffffffff1673ffffffffffffffffffffffffffffffffffffffff168152602001908152602001600020549050919050565b600060019054906101000a900473ffffffffffffffffffffffffffffffffffffffff1681565b600090565b60003373ffffffffffffffffffffffffffffffffffffffff16600060019054906101000a900473ffffffffffffffffffffffffffffffffffffffff1673ffffffffffffffffffffffffffffffffffffffff1614905090565b600060011515600360008473ffffffffffffffffffffffffffffffffffffffff1673ffffffffffffffffffffffffffffffffffffffff16815260200190815260200160002060009054906101000a900460ff161515149050919050565b6000600260003373ffffffffffffffffffffffffffffffffffffffff1673ffffffffffffffffffffffffffffffffffffffff16815260200190815260200160002054905090565b60008060019054906101000a900473ffffffffffffffffffffffffffffffffffffffff1673ffffffffffffffffffffffffffffffffffffffff163373ffffffffffffffffffffffffffffffffffffffff161461076157600080fd5b60001515600360008473ffffffffffffffffffffffffffffffffffffffff1673ffffffffffffffffffffffffffffffffffffffff16815260200190815260200160002060009054906101000a900460ff161515146107be57600080fd5b6000601581819054906101000a900460ff16809291906107dd90610f56565b91906101000a81548160ff021916908360ff160217905550506001829080600181540180825580915050600190039060005260206000200160009091909190916101000a81548173ffffffffffffffffffffffffffffffffffffffff021916908373ffffffffffffffffffffffffffffffffffffffff1602179055506000600260008473ffffffffffffffffffffffffffffffffffffffff1673ffffffffffffffffffffffffffffffffffffffff168152602001908152602001600020819055506001600360008473ffffffffffffffffffffffffffffffffffffffff1673ffffffffffffffffffffffffffffffffffffffff16815260200190815260200160002060006101000a81548160ff021916908315150217905550600260008373ffffffffffffffffffffffffffffffffffffffff1673ffffffffffffffffffffffffffffffffffffffff168152602001908152602001600020549050919050565b600060011515600360003373ffffffffffffffffffffffffffffffffffffffff1673ffffffffffffffffffffffffffffffffffffffff16815260200190815260200160002060009054906101000a900460ff16151514806109af57506001151560008054906101000a900460ff161515145b6109b857600080fd5b600015156109c533610662565b15151415610b06576000601581819054906101000a900460ff16809291906109ec90610f56565b91906101000a81548160ff021916908360ff160217905550506001339080600181540180825580915050600190039060005260206000200160009091909190916101000a81548173ffffffffffffffffffffffffffffffffffffffff021916908373ffffffffffffffffffffffffffffffffffffffff1602179055506000600260003373ffffffffffffffffffffffffffffffffffffffff1673ffffffffffffffffffffffffffffffffffffffff168152602001908152602001600020819055506001600360003373ffffffffffffffffffffffffffffffffffffffff1673ffffffffffffffffffffffffffffffffffffffff16815260200190815260200160002060006101000a81548160ff0219169083151502179055505b34600260003373ffffffffffffffffffffffffffffffffffffffff1673ffffffffffffffffffffffffffffffffffffffff1681526020019081526020016000206000828254610b559190610e77565b925050819055503373ffffffffffffffffffffffffffffffffffffffff167fa8126f7572bb1fdeae5b5aa9ec126438b91f658a07873f009d041ae690f3a19334604051610ba29190610e23565b60405180910390a2600260003373ffffffffffffffffffffffffffffffffffffffff1673ffffffffffffffffffffffffffffffffffffffff16815260200190815260200160002054905090565b60606001805480602002602001604051908101604052809291908181526020018280548015610c7357602002820191906000526020600020905b8160009054906101000a900473ffffffffffffffffffffffffffffffffffffffff1673ffffffffffffffffffffffffffffffffffffffff1681526020019060010190808311610c29575b5050505050905090565b60036020528060005260406000206000915054906101000a900460ff1681565b600081359050610cac81610faf565b92915050565b600081359050610cc181610fc6565b92915050565b600060208284031215610cd957600080fd5b6000610ce784828501610c9d565b91505092915050565b600060208284031215610d0257600080fd5b6000610d1084828501610cb2565b91505092915050565b6000610d258383610d31565b60208301905092915050565b610d3a81610f01565b82525050565b610d4981610f01565b82525050565b6000610d5a82610e4e565b610d648185610e66565b9350610d6f83610e3e565b8060005b83811015610da0578151610d878882610d19565b9750610d9283610e59565b925050600181019050610d73565b5085935050505092915050565b610db681610f13565b82525050565b610dc581610f3f565b82525050565b6000602082019050610de06000830184610d40565b92915050565b60006020820190508181036000830152610e008184610d4f565b905092915050565b6000602082019050610e1d6000830184610dad565b92915050565b6000602082019050610e386000830184610dbc565b92915050565b6000819050602082019050919050565b600081519050919050565b6000602082019050919050565b600082825260208201905092915050565b6000610e8282610f3f565b9150610e8d83610f3f565b9250827fffffffffffffffffffffffffffffffffffffffffffffffffffffffffffffffff03821115610ec257610ec1610f80565b5b828201905092915050565b6000610ed882610f3f565b9150610ee383610f3f565b925082821015610ef657610ef5610f80565b5b828203905092915050565b6000610f0c82610f1f565b9050919050565b60008115159050919050565b600073ffffffffffffffffffffffffffffffffffffffff82169050919050565b6000819050919050565b600060ff82169050919050565b6000610f6182610f49565b915060ff821415610f7557610f74610f80565b5b600182019050919050565b7f4e487b7100000000000000000000000000000000000000000000000000000000600052601160045260246000fd5b610fb881610f01565b8114610fc357600080fd5b50565b610fcf81610f3f565b8114610fda57600080fd5b5056fea2646970667358221220bdc1d76b9fb41b4346235beefe72a9b31cc0b59d1f2adf74a5ee71fc7df0c9a264736f6c63430008010033a26469706673582212209f860a66b40cd02479d6bfb885da1858609dd077402c7fa84e49cdc6486d513b64736f6c63430008010033",
  "immutableReferences": {},
  "source": "// SPDX-License-Identifier: MIT\npragma solidity >=0.8.0;\n\nimport \"./PoolFactory.sol\";\n\ncontract PoolRecorder {\n    struct Pool {\n        string name;\n        string description;\n        address owner;\n        address PoolAddress;\n        bool visible;\n    }\n\n    address[] poolList;\n    mapping(address => Pool) public poolRecorded;\n\n    event PoolAdded(address poolAddress);\n\n    function createPool(\n        string memory _name,\n        string memory _description,\n        bool _visible,\n        address _owner\n    ) public returns (address) {\n        PoolFactory newPoolBank = new PoolFactory(true, _owner);\n        addPool(\n            address(newPoolBank),\n            msg.sender,\n            _name,\n            _description,\n            _visible\n        );\n        return address(newPoolBank);\n    }\n\n    function addPool(\n        address poolAddress,\n        address _owner,\n        string memory _name,\n        string memory _description,\n        bool _visible\n    ) private {\n        poolList.push(poolAddress);\n        poolRecorded[poolAddress] = Pool(\n            _name,\n            _description,\n            _owner,\n            poolAddress,\n            _visible\n        );\n        emit PoolAdded(poolAddress);\n    }\n\n    function removePool(address poolAddress) public {\n        for (uint256 index = 0; index < poolList.length; index++) {\n            if (poolList[index] == poolAddress) {\n                poolList[index] = poolList[poolList.length - 1];\n                delete poolList[poolList.length - 1];\n                break;\n            }\n        }\n    }\n\n    function getListPools() public view returns (address[] memory) {\n        return poolList;\n    }\n\n    function getPoolInfo(address poolAddress)\n        public\n        view\n        returns (Pool memory)\n    {\n        return poolRecorded[poolAddress];\n    }\n}\n",
  "sourcePath": "/home/eddine/Documents/project/blockchain/Ohreee/OhreeePoolDapp/contracts/PoolRecorder.sol",
  "compiler": {
    "name": "solc",
    "version": "0.8.1+commit.df193b15.Emscripten.clang"
  },
  "schemaVersion": "3.3.2",
  "updatedAt": "2021-03-28T13:06:35.382Z",
  "networkType": "ethereum",
  "devdoc": {
    "kind": "dev",
    "methods": {},
    "version": 1
  },
  "userdoc": {
    "kind": "user",
    "methods": {},
    "version": 1
  }
}