{
  "contractName": "PoolFactory",
  "abi": [
    {
      "inputs": [
        {
          "internalType": "bool",
          "name": "_isPublic",
          "type": "bool"
        },
        {
          "internalType": "address",
          "name": "_owner",
          "type": "address"
        }
      ],
      "stateMutability": "nonpayable",
      "type": "constructor"
    },
    {
      "anonymous": false,
      "inputs": [
        {
          "indexed": true,
          "internalType": "address",
          "name": "accountAddress",
          "type": "address"
        },
        {
          "indexed": false,
          "internalType": "uint256",
          "name": "amount",
          "type": "uint256"
        }
      ],
      "name": "LogDepositMade",
      "type": "event"
    },
    {
      "inputs": [
        {
          "internalType": "address",
          "name": "",
          "type": "address"
        }
      ],
      "name": "balances",
      "outputs": [
        {
          "internalType": "uint256",
          "name": "",
          "type": "uint256"
        }
      ],
      "stateMutability": "view",
      "type": "function"
    },
    {
      "inputs": [
        {
          "internalType": "address",
          "name": "",
          "type": "address"
        }
      ],
      "name": "exists",
      "outputs": [
        {
          "internalType": "bool",
          "name": "",
          "type": "bool"
        }
      ],
      "stateMutability": "view",
      "type": "function"
    },
    {
      "inputs": [],
      "name": "owner",
      "outputs": [
        {
          "internalType": "address",
          "name": "",
          "type": "address"
        }
      ],
      "stateMutability": "view",
      "type": "function"
    },
    {
      "inputs": [
        {
          "internalType": "uint256",
          "name": "",
          "type": "uint256"
        }
      ],
      "name": "participantsList",
      "outputs": [
        {
          "internalType": "address",
          "name": "",
          "type": "address"
        }
      ],
      "stateMutability": "view",
      "type": "function"
    },
    {
      "inputs": [
        {
          "internalType": "address",
          "name": "participant",
          "type": "address"
        }
      ],
      "name": "enroll",
      "outputs": [
        {
          "internalType": "uint256",
          "name": "",
          "type": "uint256"
        }
      ],
      "stateMutability": "nonpayable",
      "type": "function"
    },
    {
      "inputs": [],
      "name": "deposit",
      "outputs": [
        {
          "internalType": "uint256",
          "name": "",
          "type": "uint256"
        }
      ],
      "stateMutability": "payable",
      "type": "function"
    },
    {
      "inputs": [
        {
          "internalType": "uint256",
          "name": "withdrawAmount",
          "type": "uint256"
        }
      ],
      "name": "withdraw",
      "outputs": [
        {
          "internalType": "uint256",
          "name": "remainingBal",
          "type": "uint256"
        }
      ],
      "stateMutability": "nonpayable",
      "type": "function"
    },
    {
      "inputs": [],
      "name": "balance",
      "outputs": [
        {
          "internalType": "uint256",
          "name": "",
          "type": "uint256"
        }
      ],
      "stateMutability": "view",
      "type": "function"
    },
    {
      "inputs": [],
      "name": "depositsBalance",
      "outputs": [
        {
          "internalType": "uint256",
          "name": "",
          "type": "uint256"
        }
      ],
      "stateMutability": "view",
      "type": "function"
    },
    {
      "inputs": [],
      "name": "is_owner",
      "outputs": [
        {
          "internalType": "bool",
          "name": "",
          "type": "bool"
        }
      ],
      "stateMutability": "view",
      "type": "function"
    },
    {
      "inputs": [
        {
          "internalType": "address",
          "name": "participant",
          "type": "address"
        }
      ],
      "name": "balanceParticipant",
      "outputs": [
        {
          "internalType": "uint256",
          "name": "",
          "type": "uint256"
        }
      ],
      "stateMutability": "view",
      "type": "function"
    },
    {
      "inputs": [
        {
          "internalType": "address",
          "name": "participant",
          "type": "address"
        }
      ],
      "name": "is_allowed",
      "outputs": [
        {
          "internalType": "bool",
          "name": "",
          "type": "bool"
        }
      ],
      "stateMutability": "view",
      "type": "function"
    },
    {
      "inputs": [],
      "name": "getParticipantList",
      "outputs": [
        {
          "internalType": "address[]",
          "name": "",
          "type": "address[]"
        }
      ],
      "stateMutability": "view",
      "type": "function"
    },
    {
      "inputs": [],
      "name": "invest_compound",
      "outputs": [
        {
          "internalType": "uint256",
          "name": "",
          "type": "uint256"
        }
      ],
      "stateMutability": "pure",
      "type": "function"
    }
  ],
  "bytecode": "0x60806040523480156200001157600080fd5b506040516200131e3803806200131e833981810160405281019062000037919062000246565b816000806101000a81548160ff02191690831515021790555080600060016101000a81548173ffffffffffffffffffffffffffffffffffffffff021916908373ffffffffffffffffffffffffffffffffffffffff1602179055506000600260008060019054906101000a900473ffffffffffffffffffffffffffffffffffffffff1673ffffffffffffffffffffffffffffffffffffffff1673ffffffffffffffffffffffffffffffffffffffff168152602001908152602001600020819055506001600360008060019054906101000a900473ffffffffffffffffffffffffffffffffffffffff1673ffffffffffffffffffffffffffffffffffffffff1673ffffffffffffffffffffffffffffffffffffffff16815260200190815260200160002060006101000a81548160ff02191690831515021790555060008060156101000a81548160ff021916908360ff1602179055506001600060019054906101000a900473ffffffffffffffffffffffffffffffffffffffff169080600181540180825580915050600190039060005260206000200160009091909190916101000a81548173ffffffffffffffffffffffffffffffffffffffff021916908373ffffffffffffffffffffffffffffffffffffffff1602179055505050620002fb565b6000815190506200022981620002c7565b92915050565b6000815190506200024081620002e1565b92915050565b600080604083850312156200025a57600080fd5b60006200026a858286016200022f565b92505060206200027d8582860162000218565b9150509250929050565b60006200029482620002a7565b9050919050565b60008115159050919050565b600073ffffffffffffffffffffffffffffffffffffffff82169050919050565b620002d28162000287565b8114620002de57600080fd5b50565b620002ec816200029b565b8114620002f857600080fd5b50565b611013806200030b6000396000f3fe6080604052600436106100dd5760003560e01c8063ad721ff61161007f578063ba83d1a011610059578063ba83d1a0146102ea578063d0e30db014610327578063ed214fff14610345578063f6a3d24e14610370576100dd565b8063ad721ff614610257578063b34d7e8f14610282578063b69ef8a8146102bf576100dd565b80632820aece116100bb5780632820aece146101875780632e1a7d4d146101c45780638da5cb5b146102015780638fb7d7f81461022c576100dd565b806305488a2c146100e2578063138fbe711461011f57806327e235e31461014a575b600080fd5b3480156100ee57600080fd5b5061010960048036038101906101049190610cc7565b6103ad565b6040516101169190610e23565b60405180910390f35b34801561012b57600080fd5b506101346103f6565b6040516101419190610e23565b60405180910390f35b34801561015657600080fd5b50610171600480360381019061016c9190610cc7565b6103fe565b60405161017e9190610e23565b60405180910390f35b34801561019357600080fd5b506101ae60048036038101906101a99190610cf0565b610416565b6040516101bb9190610dcb565b60405180910390f35b3480156101d057600080fd5b506101eb60048036038101906101e69190610cf0565b610455565b6040516101f89190610e23565b60405180910390f35b34801561020d57600080fd5b506102166105df565b6040516102239190610dcb565b60405180910390f35b34801561023857600080fd5b50610241610605565b60405161024e9190610e23565b60405180910390f35b34801561026357600080fd5b5061026c61060a565b6040516102799190610e08565b60405180910390f35b34801561028e57600080fd5b506102a960048036038101906102a49190610cc7565b610662565b6040516102b69190610e08565b60405180910390f35b3480156102cb57600080fd5b506102d46106bf565b6040516102e19190610e23565b60405180910390f35b3480156102f657600080fd5b50610311600480360381019061030c9190610cc7565b610706565b60405161031e9190610e23565b60405180910390f35b61032f61093d565b60405161033c9190610e23565b60405180910390f35b34801561035157600080fd5b5061035a610bef565b6040516103679190610de6565b60405180910390f35b34801561037c57600080fd5b5061039760048036038101906103929190610cc7565b610c7d565b6040516103a49190610e08565b60405180910390f35b6000600260008373ffffffffffffffffffffffffffffffffffffffff1673ffffffffffffffffffffffffffffffffffffffff168152602001908152602001600020549050919050565b600047905090565b60026020528060005260406000206000915090505481565b6001818154811061042657600080fd5b906000526020600020016000915054906101000a900473ffffffffffffffffffffffffffffffffffffffff1681565b600060011515600360003373ffffffffffffffffffffffffffffffffffffffff1673ffffffffffffffffffffffffffffffffffffffff16815260200190815260200160002060009054906101000a900460ff161515146104b457600080fd5b600260003373ffffffffffffffffffffffffffffffffffffffff1673ffffffffffffffffffffffffffffffffffffffff1681526020019081526020016000205482116105985781600260003373ffffffffffffffffffffffffffffffffffffffff1673ffffffffffffffffffffffffffffffffffffffff16815260200190815260200160002060008282546105499190610ecd565b925050819055503373ffffffffffffffffffffffffffffffffffffffff166108fc839081150290604051600060405180830381858888f19350505050158015610596573d6000803e3d6000fd5b505b600260003373ffffffffffffffffffffffffffffffffffffffff1673ffffffffffffffffffffffffffffffffffffffff168152602001908152602001600020549050919050565b600060019054906101000a900473ffffffffffffffffffffffffffffffffffffffff1681565b600090565b60003373ffffffffffffffffffffffffffffffffffffffff16600060019054906101000a900473ffffffffffffffffffffffffffffffffffffffff1673ffffffffffffffffffffffffffffffffffffffff1614905090565b600060011515600360008473ffffffffffffffffffffffffffffffffffffffff1673ffffffffffffffffffffffffffffffffffffffff16815260200190815260200160002060009054906101000a900460ff161515149050919050565b6000600260003373ffffffffffffffffffffffffffffffffffffffff1673ffffffffffffffffffffffffffffffffffffffff16815260200190815260200160002054905090565b60008060019054906101000a900473ffffffffffffffffffffffffffffffffffffffff1673ffffffffffffffffffffffffffffffffffffffff163373ffffffffffffffffffffffffffffffffffffffff161461076157600080fd5b60001515600360008473ffffffffffffffffffffffffffffffffffffffff1673ffffffffffffffffffffffffffffffffffffffff16815260200190815260200160002060009054906101000a900460ff161515146107be57600080fd5b6000601581819054906101000a900460ff16809291906107dd90610f56565b91906101000a81548160ff021916908360ff160217905550506001829080600181540180825580915050600190039060005260206000200160009091909190916101000a81548173ffffffffffffffffffffffffffffffffffffffff021916908373ffffffffffffffffffffffffffffffffffffffff1602179055506000600260008473ffffffffffffffffffffffffffffffffffffffff1673ffffffffffffffffffffffffffffffffffffffff168152602001908152602001600020819055506001600360008473ffffffffffffffffffffffffffffffffffffffff1673ffffffffffffffffffffffffffffffffffffffff16815260200190815260200160002060006101000a81548160ff021916908315150217905550600260008373ffffffffffffffffffffffffffffffffffffffff1673ffffffffffffffffffffffffffffffffffffffff168152602001908152602001600020549050919050565b600060011515600360003373ffffffffffffffffffffffffffffffffffffffff1673ffffffffffffffffffffffffffffffffffffffff16815260200190815260200160002060009054906101000a900460ff16151514806109af57506001151560008054906101000a900460ff161515145b6109b857600080fd5b600015156109c533610662565b15151415610b06576000601581819054906101000a900460ff16809291906109ec90610f56565b91906101000a81548160ff021916908360ff160217905550506001339080600181540180825580915050600190039060005260206000200160009091909190916101000a81548173ffffffffffffffffffffffffffffffffffffffff021916908373ffffffffffffffffffffffffffffffffffffffff1602179055506000600260003373ffffffffffffffffffffffffffffffffffffffff1673ffffffffffffffffffffffffffffffffffffffff168152602001908152602001600020819055506001600360003373ffffffffffffffffffffffffffffffffffffffff1673ffffffffffffffffffffffffffffffffffffffff16815260200190815260200160002060006101000a81548160ff0219169083151502179055505b34600260003373ffffffffffffffffffffffffffffffffffffffff1673ffffffffffffffffffffffffffffffffffffffff1681526020019081526020016000206000828254610b559190610e77565b925050819055503373ffffffffffffffffffffffffffffffffffffffff167fa8126f7572bb1fdeae5b5aa9ec126438b91f658a07873f009d041ae690f3a19334604051610ba29190610e23565b60405180910390a2600260003373ffffffffffffffffffffffffffffffffffffffff1673ffffffffffffffffffffffffffffffffffffffff16815260200190815260200160002054905090565b60606001805480602002602001604051908101604052809291908181526020018280548015610c7357602002820191906000526020600020905b8160009054906101000a900473ffffffffffffffffffffffffffffffffffffffff1673ffffffffffffffffffffffffffffffffffffffff1681526020019060010190808311610c29575b5050505050905090565b60036020528060005260406000206000915054906101000a900460ff1681565b600081359050610cac81610faf565b92915050565b600081359050610cc181610fc6565b92915050565b600060208284031215610cd957600080fd5b6000610ce784828501610c9d565b91505092915050565b600060208284031215610d0257600080fd5b6000610d1084828501610cb2565b91505092915050565b6000610d258383610d31565b60208301905092915050565b610d3a81610f01565b82525050565b610d4981610f01565b82525050565b6000610d5a82610e4e565b610d648185610e66565b9350610d6f83610e3e565b8060005b83811015610da0578151610d878882610d19565b9750610d9283610e59565b925050600181019050610d73565b5085935050505092915050565b610db681610f13565b82525050565b610dc581610f3f565b82525050565b6000602082019050610de06000830184610d40565b92915050565b60006020820190508181036000830152610e008184610d4f565b905092915050565b6000602082019050610e1d6000830184610dad565b92915050565b6000602082019050610e386000830184610dbc565b92915050565b6000819050602082019050919050565b600081519050919050565b6000602082019050919050565b600082825260208201905092915050565b6000610e8282610f3f565b9150610e8d83610f3f565b9250827fffffffffffffffffffffffffffffffffffffffffffffffffffffffffffffffff03821115610ec257610ec1610f80565b5b828201905092915050565b6000610ed882610f3f565b9150610ee383610f3f565b925082821015610ef657610ef5610f80565b5b828203905092915050565b6000610f0c82610f1f565b9050919050565b60008115159050919050565b600073ffffffffffffffffffffffffffffffffffffffff82169050919050565b6000819050919050565b600060ff82169050919050565b6000610f6182610f49565b915060ff821415610f7557610f74610f80565b5b600182019050919050565b7f4e487b7100000000000000000000000000000000000000000000000000000000600052601160045260246000fd5b610fb881610f01565b8114610fc357600080fd5b50565b610fcf81610f3f565b8114610fda57600080fd5b5056fea2646970667358221220bdc1d76b9fb41b4346235beefe72a9b31cc0b59d1f2adf74a5ee71fc7df0c9a264736f6c63430008010033",
  "immutableReferences": {},
  "source": "// SPDX-License-Identifier: MIT\npragma solidity >=0.8.0;\n\ncontract PoolFactory {\n    bool private isPublic;\n    address public owner;\n    uint8 private participantCount;\n    address[] public participantsList;\n    mapping(address => uint256) public balances;\n    mapping(address => bool) public exists;\n\n    // Log the event about a deposit being made by an address and its amount\n    event LogDepositMade(address indexed accountAddress, uint256 amount);\n\n    constructor(bool _isPublic, address _owner) {\n        /* Set the owner to the creator of this contract */\n        isPublic = _isPublic;\n        owner = _owner;\n        balances[owner] = 0;\n        exists[owner] = true;\n        participantCount = 0;\n        participantsList.push(owner);\n    }\n\n    /// @notice Enroll a customer with the bank,\n    /// Only the owner can enroll a participant\n    /// @return The balance of the user after enrolling\n    function enroll(address participant) public returns (uint256) {\n        require(msg.sender == owner);\n        require(exists[participant] == false);\n        participantCount++;\n        participantsList.push(participant);\n        balances[participant] = 0;\n        exists[participant] = true;\n        return balances[participant];\n    }\n\n    /// @notice Deposit ether into bank, requires method is \"payable\"\n    /// @return The balance of the user after the deposit is made\n    function deposit() public payable returns (uint256) {\n        require(exists[msg.sender] == true || isPublic == true);\n        if (is_allowed(msg.sender) == false) {\n            participantCount++;\n            participantsList.push(msg.sender);\n            balances[msg.sender] = 0;\n            exists[msg.sender] = true;\n        }\n        balances[msg.sender] += msg.value;\n        emit LogDepositMade(msg.sender, msg.value);\n        return balances[msg.sender];\n    }\n\n    /// notice Withdraw ether from bank\n    /// return The balance remaining for the user\n    function withdraw(uint256 withdrawAmount)\n        public\n        returns (uint256 remainingBal)\n    {\n        require(exists[msg.sender] == true);\n        // Check enough balance available, otherwise just return balance\n        if (withdrawAmount <= balances[msg.sender]) {\n            balances[msg.sender] -= withdrawAmount;\n            payable(msg.sender).transfer(withdrawAmount);\n        }\n        return balances[msg.sender];\n    }\n\n    /// @notice Just reads balance of the account requesting, so \"constant\"\n    /// @return The balance of the user\n    function balance() public view returns (uint256) {\n        return balances[msg.sender];\n    }\n\n    /// @return The balance of the Simple Bank contract\n    function depositsBalance() public view returns (uint256) {\n        return address(this).balance;\n    }\n\n    function is_owner() public view returns (bool) {\n        return owner == msg.sender;\n    }\n\n    function balanceParticipant(address participant)\n        public\n        view\n        returns (uint256)\n    {\n        return balances[participant];\n    }\n\n    function is_allowed(address participant) public view returns (bool) {\n        return exists[participant] == true;\n    }\n\n    /// @return the participant list\n    function getParticipantList() public view returns (address[] memory) {\n        return participantsList;\n    }\n\n    function invest_compound() public pure returns(uint) {\n        return 0;\n    }\n}\n",
  "sourcePath": "/home/eddine/Documents/project/blockchain/Ohreee/OhreeePoolDapp/contracts/PoolFactory.sol",
  "compiler": {
    "name": "solc",
    "version": "0.8.1+commit.df193b15.Emscripten.clang"
  },
  "schemaVersion": "3.3.2",
  "updatedAt": "2021-03-24T22:15:04.886Z",
  "devdoc": {
    "kind": "dev",
    "methods": {
      "balance()": {
        "returns": {
          "_0": "The balance of the user"
        }
      },
      "deposit()": {
        "returns": {
          "_0": "The balance of the user after the deposit is made"
        }
      },
      "depositsBalance()": {
        "returns": {
          "_0": "The balance of the Simple Bank contract"
        }
      },
      "enroll(address)": {
        "returns": {
          "_0": "The balance of the user after enrolling"
        }
      },
      "getParticipantList()": {
        "returns": {
          "_0": "the participant list"
        }
      }
    },
    "version": 1
  },
  "userdoc": {
    "kind": "user",
    "methods": {
      "balance()": {
        "notice": "Just reads balance of the account requesting, so \"constant\""
      },
      "deposit()": {
        "notice": "Deposit ether into bank, requires method is \"payable\""
      },
      "enroll(address)": {
        "notice": "Enroll a customer with the bank, Only the owner can enroll a participant"
      },
      "withdraw(uint256)": {
        "notice": "notice Withdraw ether from bank return The balance remaining for the user"
      }
    },
    "version": 1
  }
}