{
  "contractName": "PoolRecorder",
  "abi": [
    {
      "anonymous": false,
      "inputs": [
        {
          "indexed": false,
          "internalType": "address",
          "name": "poolAddress",
          "type": "address"
        }
      ],
      "name": "PoolAdded",
      "type": "event"
    },
    {
      "inputs": [
        {
          "internalType": "address",
          "name": "",
          "type": "address"
        }
      ],
      "name": "poolRecorded",
      "outputs": [
        {
          "internalType": "string",
          "name": "name",
          "type": "string"
        },
        {
          "internalType": "string",
          "name": "description",
          "type": "string"
        },
        {
          "internalType": "address",
          "name": "owner",
          "type": "address"
        },
        {
          "internalType": "address",
          "name": "PoolAddress",
          "type": "address"
        },
        {
          "internalType": "bool",
          "name": "visible",
          "type": "bool"
        }
      ],
      "stateMutability": "view",
      "type": "function",
      "constant": true
    },
    {
      "inputs": [
        {
          "internalType": "string",
          "name": "_name",
          "type": "string"
        },
        {
          "internalType": "string",
          "name": "_description",
          "type": "string"
        },
        {
          "internalType": "bool",
          "name": "_visible",
          "type": "bool"
        },
        {
          "internalType": "address",
          "name": "_owner",
          "type": "address"
        }
      ],
      "name": "createPool",
      "outputs": [
        {
          "internalType": "address",
          "name": "",
          "type": "address"
        }
      ],
      "stateMutability": "nonpayable",
      "type": "function"
    },
    {
      "inputs": [
        {
          "internalType": "address",
          "name": "poolAddress",
          "type": "address"
        }
      ],
      "name": "removePool",
      "outputs": [],
      "stateMutability": "nonpayable",
      "type": "function"
    },
    {
      "inputs": [],
      "name": "getListPools",
      "outputs": [
        {
          "internalType": "address[]",
          "name": "",
          "type": "address[]"
        }
      ],
      "stateMutability": "view",
      "type": "function",
      "constant": true
    },
    {
      "inputs": [
        {
          "internalType": "address",
          "name": "poolAddress",
          "type": "address"
        }
      ],
      "name": "getPoolInfo",
      "outputs": [
        {
          "components": [
            {
              "internalType": "string",
              "name": "name",
              "type": "string"
            },
            {
              "internalType": "string",
              "name": "description",
              "type": "string"
            },
            {
              "internalType": "address",
              "name": "owner",
              "type": "address"
            },
            {
              "internalType": "address",
              "name": "PoolAddress",
              "type": "address"
            },
            {
              "internalType": "bool",
              "name": "visible",
              "type": "bool"
            }
          ],
          "internalType": "struct PoolRecorder.Pool",
          "name": "",
          "type": "tuple"
        }
      ],
      "stateMutability": "view",
      "type": "function",
      "constant": true
    }
  ],
  "bytecode": "0x608060405234801561001057600080fd5b50613e32806100206000396000f3fe60806040523480156200001157600080fd5b50600436106200005e5760003560e01c806306bfa93814620000635780633b7d094614620000995780637197092f14620000b9578063995632ae14620000ef578063ab8a10771462000111575b600080fd5b6200008160048036038101906200007b919062000c52565b6200014b565b60405162000090919062000fc6565b60405180910390f35b620000b76004803603810190620000b1919062000c52565b620003a1565b005b620000d76004803603810190620000d1919062000c7e565b620005e3565b604051620000e6919062000eed565b60405180910390f35b620000f96200063e565b60405162000108919062000f0a565b60405180910390f35b6200012f600480360381019062000129919062000c52565b620006ce565b6040516200014295949392919062000f5b565b60405180910390f35b6200015562000a97565b600160008373ffffffffffffffffffffffffffffffffffffffff1673ffffffffffffffffffffffffffffffffffffffff1681526020019081526020016000206040518060a0016040529081600082018054620001b19062001179565b80601f0160208091040260200160405190810160405280929190818152602001828054620001df9062001179565b8015620002305780601f10620002045761010080835404028352916020019162000230565b820191906000526020600020905b8154815290600101906020018083116200021257829003601f168201915b505050505081526020016001820180546200024b9062001179565b80601f0160208091040260200160405190810160405280929190818152602001828054620002799062001179565b8015620002ca5780601f106200029e57610100808354040283529160200191620002ca565b820191906000526020600020905b815481529060010190602001808311620002ac57829003601f168201915b505050505081526020016002820160009054906101000a900473ffffffffffffffffffffffffffffffffffffffff1673ffffffffffffffffffffffffffffffffffffffff1673ffffffffffffffffffffffffffffffffffffffff1681526020016003820160009054906101000a900473ffffffffffffffffffffffffffffffffffffffff1673ffffffffffffffffffffffffffffffffffffffff1673ffffffffffffffffffffffffffffffffffffffff1681526020016003820160149054906101000a900460ff1615151515815250509050919050565b60005b600080549050811015620005df578173ffffffffffffffffffffffffffffffffffffffff166000828154811062000404577f4e487b7100000000000000000000000000000000000000000000000000000000600052603260045260246000fd5b9060005260206000200160009054906101000a900473ffffffffffffffffffffffffffffffffffffffff1673ffffffffffffffffffffffffffffffffffffffff161415620005c95760006001600080549050620004629190620010af565b815481106200049a577f4e487b7100000000000000000000000000000000000000000000000000000000600052603260045260246000fd5b9060005260206000200160009054906101000a900473ffffffffffffffffffffffffffffffffffffffff166000828154811062000500577f4e487b7100000000000000000000000000000000000000000000000000000000600052603260045260246000fd5b9060005260206000200160006101000a81548173ffffffffffffffffffffffffffffffffffffffff021916908373ffffffffffffffffffffffffffffffffffffffff160217905550600060016000805490506200055e9190620010af565b8154811062000596577f4e487b7100000000000000000000000000000000000000000000000000000000600052603260045260246000fd5b9060005260206000200160006101000a81549073ffffffffffffffffffffffffffffffffffffffff0219169055620005df565b8080620005d690620011e5565b915050620003a4565b5050565b6000808383604051620005f69062000af4565b6200060392919062000f2e565b604051809103906000f08015801562000620573d6000803e3d6000fd5b50905062000632818488888862000871565b80915050949350505050565b60606000805480602002602001604051908101604052809291908181526020018280548015620006c457602002820191906000526020600020905b8160009054906101000a900473ffffffffffffffffffffffffffffffffffffffff1673ffffffffffffffffffffffffffffffffffffffff168152602001906001019080831162000679575b5050505050905090565b6001602052806000526040600020600091509050806000018054620006f39062001179565b80601f0160208091040260200160405190810160405280929190818152602001828054620007219062001179565b8015620007725780601f10620007465761010080835404028352916020019162000772565b820191906000526020600020905b8154815290600101906020018083116200075457829003601f168201915b505050505090806001018054620007899062001179565b80601f0160208091040260200160405190810160405280929190818152602001828054620007b79062001179565b8015620008085780601f10620007dc5761010080835404028352916020019162000808565b820191906000526020600020905b815481529060010190602001808311620007ea57829003601f168201915b5050505050908060020160009054906101000a900473ffffffffffffffffffffffffffffffffffffffff16908060030160009054906101000a900473ffffffffffffffffffffffffffffffffffffffff16908060030160149054906101000a900460ff16905085565b6000859080600181540180825580915050600190039060005260206000200160009091909190916101000a81548173ffffffffffffffffffffffffffffffffffffffff021916908373ffffffffffffffffffffffffffffffffffffffff1602179055506040518060a001604052808481526020018381526020018573ffffffffffffffffffffffffffffffffffffffff1681526020018673ffffffffffffffffffffffffffffffffffffffff168152602001821515815250600160008773ffffffffffffffffffffffffffffffffffffffff1673ffffffffffffffffffffffffffffffffffffffff16815260200190815260200160002060008201518160000190805190602001906200098692919062000b02565b506020820151816001019080519060200190620009a592919062000b02565b5060408201518160020160006101000a81548173ffffffffffffffffffffffffffffffffffffffff021916908373ffffffffffffffffffffffffffffffffffffffff16021790555060608201518160030160006101000a81548173ffffffffffffffffffffffffffffffffffffffff021916908373ffffffffffffffffffffffffffffffffffffffff16021790555060808201518160030160146101000a81548160ff0219169083151502179055509050507f73cca62ab1b520c9715bf4e6c71e3e518c754e7148f65102f43289a7df0efea68560405162000a88919062000eed565b60405180910390a15050505050565b6040518060a001604052806060815260200160608152602001600073ffffffffffffffffffffffffffffffffffffffff168152602001600073ffffffffffffffffffffffffffffffffffffffff1681526020016000151581525090565b612af7806200130683390190565b82805462000b109062001179565b90600052602060002090601f01602090048101928262000b34576000855562000b80565b82601f1062000b4f57805160ff191683800117855562000b80565b8280016001018555821562000b80579182015b8281111562000b7f57825182559160200191906001019062000b62565b5b50905062000b8f919062000b93565b5090565b5b8082111562000bae57600081600090555060010162000b94565b5090565b600062000bc962000bc38462001013565b62000fea565b90508281526020810184848401111562000be257600080fd5b62000bef84828562001134565b509392505050565b60008135905062000c0881620012d1565b92915050565b60008135905062000c1f81620012eb565b92915050565b600082601f83011262000c3757600080fd5b813562000c4984826020860162000bb2565b91505092915050565b60006020828403121562000c6557600080fd5b600062000c758482850162000bf7565b91505092915050565b6000806000806080858703121562000c9557600080fd5b600085013567ffffffffffffffff81111562000cb057600080fd5b62000cbe8782880162000c25565b945050602085013567ffffffffffffffff81111562000cdc57600080fd5b62000cea8782880162000c25565b935050604062000cfd8782880162000c0e565b925050606062000d108782880162000bf7565b91505092959194509250565b600062000d2a838362000d36565b60208301905092915050565b62000d4181620010ea565b82525050565b62000d5281620010ea565b82525050565b600062000d658262001059565b62000d7181856200107c565b935062000d7e8362001049565b8060005b8381101562000db557815162000d99888262000d1c565b975062000da6836200106f565b92505060018101905062000d82565b5085935050505092915050565b62000dcd81620010fe565b82525050565b62000dde81620010fe565b82525050565b600062000df18262001064565b62000dfd81856200108d565b935062000e0f81856020860162001143565b62000e1a81620012c0565b840191505092915050565b600062000e328262001064565b62000e3e81856200109e565b935062000e5081856020860162001143565b62000e5b81620012c0565b840191505092915050565b600060a083016000830151848203600086015262000e85828262000de4565b9150506020830151848203602086015262000ea1828262000de4565b915050604083015162000eb8604086018262000d36565b50606083015162000ecd606086018262000d36565b50608083015162000ee2608086018262000dc2565b508091505092915050565b600060208201905062000f04600083018462000d47565b92915050565b6000602082019050818103600083015262000f26818462000d58565b905092915050565b600060408201905062000f45600083018562000dd3565b62000f54602083018462000d47565b9392505050565b600060a082019050818103600083015262000f77818862000e25565b9050818103602083015262000f8d818762000e25565b905062000f9e604083018662000d47565b62000fad606083018562000d47565b62000fbc608083018462000dd3565b9695505050505050565b6000602082019050818103600083015262000fe2818462000e66565b905092915050565b600062000ff662001009565b9050620010048282620011af565b919050565b6000604051905090565b600067ffffffffffffffff82111562001031576200103062001291565b5b6200103c82620012c0565b9050602081019050919050565b6000819050602082019050919050565b600081519050919050565b600081519050919050565b6000602082019050919050565b600082825260208201905092915050565b600082825260208201905092915050565b600082825260208201905092915050565b6000620010bc826200112a565b9150620010c9836200112a565b925082821015620010df57620010de62001233565b5b828203905092915050565b6000620010f7826200110a565b9050919050565b60008115159050919050565b600073ffffffffffffffffffffffffffffffffffffffff82169050919050565b6000819050919050565b82818337600083830152505050565b60005b838110156200116357808201518184015260208101905062001146565b8381111562001173576000848401525b50505050565b600060028204905060018216806200119257607f821691505b60208210811415620011a957620011a862001262565b5b50919050565b620011ba82620012c0565b810181811067ffffffffffffffff82111715620011dc57620011db62001291565b5b80604052505050565b6000620011f2826200112a565b91507fffffffffffffffffffffffffffffffffffffffffffffffffffffffffffffffff82141562001228576200122762001233565b5b600182019050919050565b7f4e487b7100000000000000000000000000000000000000000000000000000000600052601160045260246000fd5b7f4e487b7100000000000000000000000000000000000000000000000000000000600052602260045260246000fd5b7f4e487b7100000000000000000000000000000000000000000000000000000000600052604160045260246000fd5b6000601f19601f8301169050919050565b620012dc81620010ea565b8114620012e857600080fd5b50565b620012f681620010fe565b81146200130257600080fd5b5056fe60806040523480156200001157600080fd5b5060405162002af738038062002af7833981810160405281019062000037919062000246565b816000806101000a81548160ff02191690831515021790555080600060016101000a81548173ffffffffffffffffffffffffffffffffffffffff021916908373ffffffffffffffffffffffffffffffffffffffff1602179055506000600260008060019054906101000a900473ffffffffffffffffffffffffffffffffffffffff1673ffffffffffffffffffffffffffffffffffffffff1673ffffffffffffffffffffffffffffffffffffffff168152602001908152602001600020819055506001600360008060019054906101000a900473ffffffffffffffffffffffffffffffffffffffff1673ffffffffffffffffffffffffffffffffffffffff1673ffffffffffffffffffffffffffffffffffffffff16815260200190815260200160002060006101000a81548160ff02191690831515021790555060008060156101000a81548160ff021916908360ff1602179055506001600060019054906101000a900473ffffffffffffffffffffffffffffffffffffffff169080600181540180825580915050600190039060005260206000200160009091909190916101000a81548173ffffffffffffffffffffffffffffffffffffffff021916908373ffffffffffffffffffffffffffffffffffffffff1602179055505050620002fb565b6000815190506200022981620002c7565b92915050565b6000815190506200024081620002e1565b92915050565b600080604083850312156200025a57600080fd5b60006200026a858286016200022f565b92505060206200027d8582860162000218565b9150509250929050565b60006200029482620002a7565b9050919050565b60008115159050919050565b600073ffffffffffffffffffffffffffffffffffffffff82169050919050565b620002d28162000287565b8114620002de57600080fd5b50565b620002ec816200029b565b8114620002f857600080fd5b50565b6127ec806200030b6000396000f3fe60806040526004361061012e5760003560e01c80639b6d29ab116100ab578063ba83d1a01161006f578063ba83d1a014610447578063c6fb501414610484578063d0ace48e146104c1578063d0e30db0146104fe578063ed214fff1461051c578063f6a3d24e1461054757610135565b80639b6d29ab14610359578063a82ffd8814610384578063ad721ff6146103b4578063b34d7e8f146103df578063b69ef8a81461041c57610135565b80632e1a7d4d116100f25780632e1a7d4d146102475780633549d8fb146102845780633b7ba25f146102c15780636d12856d146102fe5780638da5cb5b1461032e57610135565b806305488a2c1461013a5780630ac298dc14610177578063138fbe71146101a257806327e235e3146101cd5780632820aece1461020a57610135565b3661013557005b600080fd5b34801561014657600080fd5b50610161600480360381019061015c9190611e40565b610584565b60405161016e919061237f565b60405180910390f35b34801561018357600080fd5b5061018c6105cd565b6040516101999190612198565b60405180910390f35b3480156101ae57600080fd5b506101b76105f6565b6040516101c4919061237f565b60405180910390f35b3480156101d957600080fd5b506101f460048036038101906101ef9190611e40565b6106ec565b604051610201919061237f565b60405180910390f35b34801561021657600080fd5b50610231600480360381019061022c9190611f0a565b610704565b60405161023e9190612198565b60405180910390f35b34801561025357600080fd5b5061026e60048036038101906102699190611f0a565b610743565b60405161027b919061237f565b60405180910390f35b34801561029057600080fd5b506102ab60048036038101906102a69190611f5c565b610985565b6040516102b8919061237f565b60405180910390f35b3480156102cd57600080fd5b506102e860048036038101906102e39190611e92565b610bd5565b6040516102f5919061237f565b60405180910390f35b61031860048036038101906103139190611e69565b610e82565b604051610325919061237f565b60405180910390f35b34801561033a57600080fd5b50610343611176565b6040516103509190612198565b60405180910390f35b34801561036557600080fd5b5061036e61119c565b60405161037b91906121fe565b60405180910390f35b61039e60048036038101906103999190611e69565b6111b2565b6040516103ab91906121fe565b60405180910390f35b3480156103c057600080fd5b506103c961139b565b6040516103d691906121fe565b60405180910390f35b3480156103eb57600080fd5b5061040660048036038101906104019190611e40565b6113f3565b60405161041391906121fe565b60405180910390f35b34801561042857600080fd5b50610431611450565b60405161043e919061237f565b60405180910390f35b34801561045357600080fd5b5061046e60048036038101906104699190611e40565b611497565b60405161047b919061237f565b60405180910390f35b34801561049057600080fd5b506104ab60048036038101906104a69190611f5c565b61173a565b6040516104b891906121fe565b60405180910390f35b3480156104cd57600080fd5b506104e860048036038101906104e39190611f5c565b6118b3565b6040516104f591906121fe565b60405180910390f35b610506611a2c565b604051610513919061237f565b60405180910390f35b34801561052857600080fd5b50610531611d14565b60405161053e91906121dc565b60405180910390f35b34801561055357600080fd5b5061056e60048036038101906105699190611e40565b611da2565b60405161057b91906121fe565b60405180910390f35b6000600260008373ffffffffffffffffffffffffffffffffffffffff1673ffffffffffffffffffffffffffffffffffffffff168152602001908152602001600020549050919050565b60008060019054906101000a900473ffffffffffffffffffffffffffffffffffffffff16905090565b600080600180549050141561060e57600090506106e9565b6000805b6001805490508110156106e357600260006001838154811061065d577f4e487b7100000000000000000000000000000000000000000000000000000000600052603260045260246000fd5b9060005260206000200160009054906101000a900473ffffffffffffffffffffffffffffffffffffffff1673ffffffffffffffffffffffffffffffffffffffff1673ffffffffffffffffffffffffffffffffffffffff16815260200190815260200160002054826106ce91906123e4565b915080806106db906124d5565b915050610612565b50809150505b90565b60026020528060005260406000206000915090505481565b6001818154811061071457600080fd5b906000526020600020016000915054906101000a900473ffffffffffffffffffffffffffffffffffffffff1681565b600060011515600360003373ffffffffffffffffffffffffffffffffffffffff1673ffffffffffffffffffffffffffffffffffffffff16815260200190815260200160002060009054906101000a900460ff161515146107d8576040517f08c379a00000000000000000000000000000000000000000000000000000000081526004016107cf90612311565b60405180910390fd5b600260003373ffffffffffffffffffffffffffffffffffffffff1673ffffffffffffffffffffffffffffffffffffffff1681526020019081526020016000205482111561085a576040517f08c379a0000000000000000000000000000000000000000000000000000000008152600401610851906122f1565b60405180910390fd5b600260003373ffffffffffffffffffffffffffffffffffffffff1673ffffffffffffffffffffffffffffffffffffffff16815260200190815260200160002054821161093e5781600260003373ffffffffffffffffffffffffffffffffffffffff1673ffffffffffffffffffffffffffffffffffffffff16815260200190815260200160002060008282546108ef919061243a565b925050819055503373ffffffffffffffffffffffffffffffffffffffff166108fc839081150290604051600060405180830381858888f1935050505015801561093c573d6000803e3d6000fd5b505b600260003373ffffffffffffffffffffffffffffffffffffffff1673ffffffffffffffffffffffffffffffffffffffff168152602001908152602001600020549050919050565b600060011515600360003373ffffffffffffffffffffffffffffffffffffffff1673ffffffffffffffffffffffffffffffffffffffff16815260200190815260200160002060009054906101000a900460ff16151514610a1a576040517f08c379a0000000000000000000000000000000000000000000000000000000008152600401610a1190612311565b60405180910390fd5b600260003373ffffffffffffffffffffffffffffffffffffffff1673ffffffffffffffffffffffffffffffffffffffff16815260200190815260200160002054841115610a9c576040517f08c379a0000000000000000000000000000000000000000000000000000000008152600401610a93906122f1565b60405180910390fd5b610aa784848461173a565b50600260003373ffffffffffffffffffffffffffffffffffffffff1673ffffffffffffffffffffffffffffffffffffffff168152602001908152602001600020548411610b8c5783600260003373ffffffffffffffffffffffffffffffffffffffff1673ffffffffffffffffffffffffffffffffffffffff1681526020019081526020016000206000828254610b3d919061243a565b925050819055503373ffffffffffffffffffffffffffffffffffffffff166108fc859081150290604051600060405180830381858888f19350505050158015610b8a573d6000803e3d6000fd5b505b600260003373ffffffffffffffffffffffffffffffffffffffff1673ffffffffffffffffffffffffffffffffffffffff1681526020019081526020016000205490509392505050565b600080849050600084905060008173ffffffffffffffffffffffffffffffffffffffff1663bd6d894d6040518163ffffffff1660e01b8152600401602060405180830381600087803b158015610c2a57600080fd5b505af1158015610c3e573d6000803e3d6000fd5b505050506040513d601f19601f82011682018060405250810190610c629190611f33565b90507f8d1cced004452bd270777a8c670f9f7e7c4fdde56f2db331fe289d39dc2624ad81604051610c939190612295565b60405180910390a160008273ffffffffffffffffffffffffffffffffffffffff1663ae9d70b06040518163ffffffff1660e01b8152600401602060405180830381600087803b158015610ce557600080fd5b505af1158015610cf9573d6000803e3d6000fd5b505050506040513d601f19601f82011682018060405250810190610d1d9190611f33565b90507f8d1cced004452bd270777a8c670f9f7e7c4fdde56f2db331fe289d39dc2624ad81604051610d4e91906122c3565b60405180910390a18373ffffffffffffffffffffffffffffffffffffffff1663095ea7b388886040518363ffffffff1660e01b8152600401610d919291906121b3565b602060405180830381600087803b158015610dab57600080fd5b505af1158015610dbf573d6000803e3d6000fd5b505050506040513d601f19601f82011682018060405250810190610de39190611ee1565b5060008373ffffffffffffffffffffffffffffffffffffffff1663a0712d68886040518263ffffffff1660e01b8152600401610e1f919061237f565b602060405180830381600087803b158015610e3957600080fd5b505af1158015610e4d573d6000803e3d6000fd5b505050506040513d601f19601f82011682018060405250810190610e719190611f33565b905080955050505050509392505050565b600060011515600360003373ffffffffffffffffffffffffffffffffffffffff1673ffffffffffffffffffffffffffffffffffffffff16815260200190815260200160002060009054906101000a900460ff1615151480610ef457506001151560008054906101000a900460ff161515145b610f33576040517f08c379a0000000000000000000000000000000000000000000000000000000008152600401610f2a90612311565b60405180910390fd5b60001515610f40336113f3565b15151415611081576000601581819054906101000a900460ff1680929190610f679061251e565b91906101000a81548160ff021916908360ff160217905550506001339080600181540180825580915050600190039060005260206000200160009091909190916101000a81548173ffffffffffffffffffffffffffffffffffffffff021916908373ffffffffffffffffffffffffffffffffffffffff1602179055506000600260003373ffffffffffffffffffffffffffffffffffffffff1673ffffffffffffffffffffffffffffffffffffffff168152602001908152602001600020819055506001600360003373ffffffffffffffffffffffffffffffffffffffff1673ffffffffffffffffffffffffffffffffffffffff16815260200190815260200160002060006101000a81548160ff0219169083151502179055505b34600260003373ffffffffffffffffffffffffffffffffffffffff1673ffffffffffffffffffffffffffffffffffffffff16815260200190815260200160002060008282546110d091906123e4565b925050819055506110e0826111b2565b503373ffffffffffffffffffffffffffffffffffffffff167fa8126f7572bb1fdeae5b5aa9ec126438b91f658a07873f009d041ae690f3a19334604051611127919061237f565b60405180910390a2600260003373ffffffffffffffffffffffffffffffffffffffff1673ffffffffffffffffffffffffffffffffffffffff168152602001908152602001600020549050919050565b600060019054906101000a900473ffffffffffffffffffffffffffffffffffffffff1681565b60008060009054906101000a900460ff16905090565b60008082905060008173ffffffffffffffffffffffffffffffffffffffff1663bd6d894d6040518163ffffffff1660e01b8152600401602060405180830381600087803b15801561120257600080fd5b505af1158015611216573d6000803e3d6000fd5b505050506040513d601f19601f8201168201806040525081019061123a9190611f33565b90507f8d1cced004452bd270777a8c670f9f7e7c4fdde56f2db331fe289d39dc2624ad8160405161126b9190612247565b60405180910390a160008273ffffffffffffffffffffffffffffffffffffffff1663ae9d70b06040518163ffffffff1660e01b8152600401602060405180830381600087803b1580156112bd57600080fd5b505af11580156112d1573d6000803e3d6000fd5b505050506040513d601f19601f820116820180604052508101906112f59190611f33565b90507f8d1cced004452bd270777a8c670f9f7e7c4fdde56f2db331fe289d39dc2624ad816040516113269190612351565b60405180910390a18273ffffffffffffffffffffffffffffffffffffffff16631249c58b346040518263ffffffff1660e01b81526004016000604051808303818588803b15801561137657600080fd5b505af115801561138a573d6000803e3d6000fd5b505050505060019350505050919050565b60003373ffffffffffffffffffffffffffffffffffffffff16600060019054906101000a900473ffffffffffffffffffffffffffffffffffffffff1673ffffffffffffffffffffffffffffffffffffffff1614905090565b600060011515600360008473ffffffffffffffffffffffffffffffffffffffff1673ffffffffffffffffffffffffffffffffffffffff16815260200190815260200160002060009054906101000a900460ff161515149050919050565b6000600260003373ffffffffffffffffffffffffffffffffffffffff1673ffffffffffffffffffffffffffffffffffffffff16815260200190815260200160002054905090565b60008060019054906101000a900473ffffffffffffffffffffffffffffffffffffffff1673ffffffffffffffffffffffffffffffffffffffff163373ffffffffffffffffffffffffffffffffffffffff1614611528576040517f08c379a000000000000000000000000000000000000000000000000000000000815260040161151f90612331565b60405180910390fd5b60001515600360008473ffffffffffffffffffffffffffffffffffffffff1673ffffffffffffffffffffffffffffffffffffffff16815260200190815260200160002060009054906101000a900460ff161515146115bb576040517f08c379a00000000000000000000000000000000000000000000000000000000081526004016115b290612275565b60405180910390fd5b6000601581819054906101000a900460ff16809291906115da9061251e565b91906101000a81548160ff021916908360ff160217905550506001829080600181540180825580915050600190039060005260206000200160009091909190916101000a81548173ffffffffffffffffffffffffffffffffffffffff021916908373ffffffffffffffffffffffffffffffffffffffff1602179055506000600260008473ffffffffffffffffffffffffffffffffffffffff1673ffffffffffffffffffffffffffffffffffffffff168152602001908152602001600020819055506001600360008473ffffffffffffffffffffffffffffffffffffffff1673ffffffffffffffffffffffffffffffffffffffff16815260200190815260200160002060006101000a81548160ff021916908315150217905550600260008373ffffffffffffffffffffffffffffffffffffffff1673ffffffffffffffffffffffffffffffffffffffff168152602001908152602001600020549050919050565b60008082905060006001151585151514156117e1578173ffffffffffffffffffffffffffffffffffffffff1663db006a75876040518263ffffffff1660e01b8152600401611788919061237f565b602060405180830381600087803b1580156117a257600080fd5b505af11580156117b6573d6000803e3d6000fd5b505050506040513d601f19601f820116820180604052508101906117da9190611f33565b905061186f565b8173ffffffffffffffffffffffffffffffffffffffff1663852a12e3876040518263ffffffff1660e01b815260040161181a919061237f565b602060405180830381600087803b15801561183457600080fd5b505af1158015611848573d6000803e3d6000fd5b505050506040513d601f19601f8201168201806040525081019061186c9190611f33565b90505b7f8d1cced004452bd270777a8c670f9f7e7c4fdde56f2db331fe289d39dc2624ad8160405161189e9190612219565b60405180910390a16001925050509392505050565b600080829050600060011515851515141561195a578173ffffffffffffffffffffffffffffffffffffffff1663db006a75876040518263ffffffff1660e01b8152600401611901919061237f565b602060405180830381600087803b15801561191b57600080fd5b505af115801561192f573d6000803e3d6000fd5b505050506040513d601f19601f820116820180604052508101906119539190611f33565b90506119e8565b8173ffffffffffffffffffffffffffffffffffffffff1663852a12e3876040518263ffffffff1660e01b8152600401611993919061237f565b602060405180830381600087803b1580156119ad57600080fd5b505af11580156119c1573d6000803e3d6000fd5b505050506040513d601f19601f820116820180604052508101906119e59190611f33565b90505b7f8d1cced004452bd270777a8c670f9f7e7c4fdde56f2db331fe289d39dc2624ad81604051611a179190612219565b60405180910390a16001925050509392505050565b600060011515600360003373ffffffffffffffffffffffffffffffffffffffff1673ffffffffffffffffffffffffffffffffffffffff16815260200190815260200160002060009054906101000a900460ff1615151480611a9e57506001151560008054906101000a900460ff161515145b611add576040517f08c379a0000000000000000000000000000000000000000000000000000000008152600401611ad490612311565b60405180910390fd5b60001515611aea336113f3565b15151415611c2b576000601581819054906101000a900460ff1680929190611b119061251e565b91906101000a81548160ff021916908360ff160217905550506001339080600181540180825580915050600190039060005260206000200160009091909190916101000a81548173ffffffffffffffffffffffffffffffffffffffff021916908373ffffffffffffffffffffffffffffffffffffffff1602179055506000600260003373ffffffffffffffffffffffffffffffffffffffff1673ffffffffffffffffffffffffffffffffffffffff168152602001908152602001600020819055506001600360003373ffffffffffffffffffffffffffffffffffffffff1673ffffffffffffffffffffffffffffffffffffffff16815260200190815260200160002060006101000a81548160ff0219169083151502179055505b34600260003373ffffffffffffffffffffffffffffffffffffffff1673ffffffffffffffffffffffffffffffffffffffff1681526020019081526020016000206000828254611c7a91906123e4565b925050819055503373ffffffffffffffffffffffffffffffffffffffff167fa8126f7572bb1fdeae5b5aa9ec126438b91f658a07873f009d041ae690f3a19334604051611cc7919061237f565b60405180910390a2600260003373ffffffffffffffffffffffffffffffffffffffff1673ffffffffffffffffffffffffffffffffffffffff16815260200190815260200160002054905090565b60606001805480602002602001604051908101604052809291908181526020018280548015611d9857602002820191906000526020600020905b8160009054906101000a900473ffffffffffffffffffffffffffffffffffffffff1673ffffffffffffffffffffffffffffffffffffffff1681526020019060010190808311611d4e575b5050505050905090565b60036020528060005260406000206000915054906101000a900460ff1681565b600081359050611dd18161275a565b92915050565b600081359050611de681612771565b92915050565b600081359050611dfb81612788565b92915050565b600081519050611e1081612788565b92915050565b600081359050611e258161279f565b92915050565b600081519050611e3a8161279f565b92915050565b600060208284031215611e5257600080fd5b6000611e6084828501611dc2565b91505092915050565b600060208284031215611e7b57600080fd5b6000611e8984828501611dd7565b91505092915050565b600080600060608486031215611ea757600080fd5b6000611eb586828701611dc2565b9350506020611ec686828701611dc2565b9250506040611ed786828701611e16565b9150509250925092565b600060208284031215611ef357600080fd5b6000611f0184828501611e01565b91505092915050565b600060208284031215611f1c57600080fd5b6000611f2a84828501611e16565b91505092915050565b600060208284031215611f4557600080fd5b6000611f5384828501611e2b565b91505092915050565b600080600060608486031215611f7157600080fd5b6000611f7f86828701611e16565b9350506020611f9086828701611dec565b9250506040611fa186828701611dc2565b9150509250925092565b6000611fb78383611fc3565b60208301905092915050565b611fcc8161246e565b82525050565b611fdb8161246e565b82525050565b6000611fec826123aa565b611ff681856123c2565b93506120018361239a565b8060005b838110156120325781516120198882611fab565b9750612024836123b5565b925050600181019050612005565b5085935050505092915050565b61204881612492565b82525050565b600061205b6024836123d3565b915061206682612577565b604082019050919050565b600061207e6023836123d3565b9150612089826125c6565b604082019050919050565b60006120a16010836123d3565b91506120ac82612615565b602082019050919050565b60006120c4601b836123d3565b91506120cf8261263e565b602082019050919050565b60006120e76018836123d3565b91506120f282612667565b602082019050919050565b600061210a602e836123d3565b915061211582612690565b604082019050919050565b600061212d600b836123d3565b9150612138826126df565b602082019050919050565b6000612150600e836123d3565b915061215b82612708565b602082019050919050565b60006121736020836123d3565b915061217e82612731565b602082019050919050565b612192816124be565b82525050565b60006020820190506121ad6000830184611fd2565b92915050565b60006040820190506121c86000830185611fd2565b6121d56020830184612189565b9392505050565b600060208201905081810360008301526121f68184611fe1565b905092915050565b6000602082019050612213600083018461203f565b92915050565b600060408201905081810360008301526122328161204e565b90506122416020830184612189565b92915050565b6000604082019050818103600083015261226081612071565b905061226f6020830184612189565b92915050565b6000602082019050818103600083015261228e81612094565b9050919050565b600060408201905081810360008301526122ae816120b7565b90506122bd6020830184612189565b92915050565b600060408201905081810360008301526122dc816120da565b90506122eb6020830184612189565b92915050565b6000602082019050818103600083015261230a816120fd565b9050919050565b6000602082019050818103600083015261232a81612120565b9050919050565b6000602082019050818103600083015261234a81612143565b9050919050565b6000604082019050818103600083015261236a81612166565b90506123796020830184612189565b92915050565b60006020820190506123946000830184612189565b92915050565b6000819050602082019050919050565b600081519050919050565b6000602082019050919050565b600082825260208201905092915050565b600082825260208201905092915050565b60006123ef826124be565b91506123fa836124be565b9250827fffffffffffffffffffffffffffffffffffffffffffffffffffffffffffffffff0382111561242f5761242e612548565b5b828201905092915050565b6000612445826124be565b9150612450836124be565b92508282101561246357612462612548565b5b828203905092915050565b60006124798261249e565b9050919050565b600061248b8261249e565b9050919050565b60008115159050919050565b600073ffffffffffffffffffffffffffffffffffffffff82169050919050565b6000819050919050565b600060ff82169050919050565b60006124e0826124be565b91507fffffffffffffffffffffffffffffffffffffffffffffffffffffffffffffffff82141561251357612512612548565b5b600182019050919050565b6000612529826124c8565b915060ff82141561253d5761253c612548565b5b600182019050919050565b7f4e487b7100000000000000000000000000000000000000000000000000000000600052601160045260246000fd5b7f49662074686973206973206e6f7420302c2074686572652077617320616e206560008201527f72726f7200000000000000000000000000000000000000000000000000000000602082015250565b7f45786368616e6765205261746520287363616c6564207570206279203165313860008201527f293a200000000000000000000000000000000000000000000000000000000000602082015250565b7f416c726561647920656e726f6c6c656400000000000000000000000000000000600082015250565b7f45786368616e6765205261746520287363616c6564207570293a200000000000600082015250565b7f537570706c7920526174653a20287363616c6564207570290000000000000000600082015250565b7f4572726f7220616d6f756e742c2063616e2774207769746864726177206d6f7260008201527f65207468616e206465706f736974000000000000000000000000000000000000602082015250565b7f4e6f7420616c6c6f776564000000000000000000000000000000000000000000600082015250565b7f4e6f7420617574686f72697a6564000000000000000000000000000000000000600082015250565b7f537570706c7920526174653a20287363616c6564207570206279203165313829600082015250565b6127638161246e565b811461276e57600080fd5b50565b61277a81612480565b811461278557600080fd5b50565b61279181612492565b811461279c57600080fd5b50565b6127a8816124be565b81146127b357600080fd5b5056fea2646970667358221220524b6b48db8851ffcebbcab8a847efb7149ae1c11a4b8512d97ffbe2b87cf8b864736f6c63430008010033a2646970667358221220d322881e017cc6425e1f2ec467176b37396683d3a516fd706c507bfd46cc48b064736f6c63430008010033",
  "immutableReferences": {},
  "source": "// SPDX-License-Identifier: MIT\npragma solidity >=0.8.0;\n\nimport \"./PoolFactory.sol\";\n\ncontract PoolRecorder {\n    struct Pool {\n        string name;\n        string description;\n        address owner;\n        address PoolAddress;\n        bool visible;\n    }\n\n    address[] poolList;\n    mapping(address => Pool) public poolRecorded;\n\n    event PoolAdded(address poolAddress);\n\n    function createPool(\n        string memory _name,\n        string memory _description,\n        bool _visible,\n        address _owner\n    ) public returns (address) {\n        PoolFactory newPoolBank = new PoolFactory(_visible, _owner);\n        addPool(\n            address(newPoolBank),\n            _owner,\n            _name,\n            _description,\n            _visible\n        );\n        return address(newPoolBank);\n    }\n\n    function addPool(\n        address poolAddress,\n        address _owner,\n        string memory _name,\n        string memory _description,\n        bool _visible\n    ) private {\n        poolList.push(poolAddress);\n        poolRecorded[poolAddress] = Pool(\n            _name,\n            _description,\n            _owner,\n            poolAddress,\n            _visible\n        );\n        emit PoolAdded(poolAddress);\n    }\n\n    function removePool(address poolAddress) public {\n        for (uint256 index = 0; index < poolList.length; index++) {\n            if (poolList[index] == poolAddress) {\n                poolList[index] = poolList[poolList.length - 1];\n                delete poolList[poolList.length - 1];\n                break;\n            }\n        }\n    }\n\n    function getListPools() public view returns (address[] memory) {\n        return poolList;\n    }\n\n    function getPoolInfo(address poolAddress)\n        public\n        view\n        returns (Pool memory)\n    {\n        return poolRecorded[poolAddress];\n    }\n}\n",
  "sourcePath": "/home/eddine/Documents/project/blockchain/Ohreee/pool-contracts/contracts/PoolRecorder.sol",
  "compiler": {
    "name": "solc",
    "version": "0.8.1+commit.df193b15.Emscripten.clang"
  },
  "schemaVersion": "3.3.2",
  "updatedAt": "2021-04-19T15:04:37.605Z",
  "networkType": "ethereum",
  "devdoc": {
    "kind": "dev",
    "methods": {},
    "version": 1
  },
  "userdoc": {
    "kind": "user",
    "methods": {},
    "version": 1
  }
}