{
  "contractName": "PoolFactory",
  "abi": [
    {
      "inputs": [
        {
          "internalType": "bool",
          "name": "_isPublic",
          "type": "bool"
        },
        {
          "internalType": "address",
          "name": "_owner",
          "type": "address"
        }
      ],
      "stateMutability": "nonpayable",
      "type": "constructor"
    },
    {
      "anonymous": false,
      "inputs": [
        {
          "indexed": true,
          "internalType": "address",
          "name": "accountAddress",
          "type": "address"
        },
        {
          "indexed": false,
          "internalType": "uint256",
          "name": "amount",
          "type": "uint256"
        }
      ],
      "name": "LogDepositMade",
      "type": "event"
    },
    {
      "anonymous": false,
      "inputs": [
        {
          "indexed": false,
          "internalType": "string",
          "name": "",
          "type": "string"
        },
        {
          "indexed": false,
          "internalType": "uint256",
          "name": "",
          "type": "uint256"
        }
      ],
      "name": "MyLog",
      "type": "event"
    },
    {
      "inputs": [
        {
          "internalType": "address",
          "name": "",
          "type": "address"
        }
      ],
      "name": "balances",
      "outputs": [
        {
          "internalType": "uint256",
          "name": "",
          "type": "uint256"
        }
      ],
      "stateMutability": "view",
      "type": "function"
    },
    {
      "inputs": [
        {
          "internalType": "address",
          "name": "",
          "type": "address"
        }
      ],
      "name": "exists",
      "outputs": [
        {
          "internalType": "bool",
          "name": "",
          "type": "bool"
        }
      ],
      "stateMutability": "view",
      "type": "function"
    },
    {
      "inputs": [],
      "name": "owner",
      "outputs": [
        {
          "internalType": "address",
          "name": "",
          "type": "address"
        }
      ],
      "stateMutability": "view",
      "type": "function"
    },
    {
      "inputs": [
        {
          "internalType": "uint256",
          "name": "",
          "type": "uint256"
        }
      ],
      "name": "participantsList",
      "outputs": [
        {
          "internalType": "address",
          "name": "",
          "type": "address"
        }
      ],
      "stateMutability": "view",
      "type": "function"
    },
    {
      "inputs": [
        {
          "internalType": "uint256",
          "name": "amount",
          "type": "uint256"
        },
        {
          "internalType": "bool",
          "name": "redeemType",
          "type": "bool"
        },
        {
          "internalType": "address",
          "name": "_cErc20Contract",
          "type": "address"
        }
      ],
      "name": "redeemCErc20Tokens",
      "outputs": [
        {
          "internalType": "bool",
          "name": "",
          "type": "bool"
        }
      ],
      "stateMutability": "nonpayable",
      "type": "function"
    },
    {
      "inputs": [
        {
          "internalType": "uint256",
          "name": "amount",
          "type": "uint256"
        },
        {
          "internalType": "bool",
          "name": "redeemType",
          "type": "bool"
        },
        {
          "internalType": "address",
          "name": "_cEtherContract",
          "type": "address"
        }
      ],
      "name": "redeemCEth",
      "outputs": [
        {
          "internalType": "bool",
          "name": "",
          "type": "bool"
        }
      ],
      "stateMutability": "nonpayable",
      "type": "function"
    },
    {
      "inputs": [
        {
          "internalType": "address",
          "name": "_erc20Contract",
          "type": "address"
        },
        {
          "internalType": "address",
          "name": "_cErc20Contract",
          "type": "address"
        },
        {
          "internalType": "uint256",
          "name": "_numTokensToSupply",
          "type": "uint256"
        }
      ],
      "name": "supplyErc20ToCompound",
      "outputs": [
        {
          "internalType": "uint256",
          "name": "",
          "type": "uint256"
        }
      ],
      "stateMutability": "nonpayable",
      "type": "function"
    },
    {
      "inputs": [
        {
          "internalType": "address payable",
          "name": "_cEtherContract",
          "type": "address"
        }
      ],
      "name": "supplyEthToCompound",
      "outputs": [
        {
          "internalType": "bool",
          "name": "",
          "type": "bool"
        }
      ],
      "stateMutability": "payable",
      "type": "function"
    },
    {
      "stateMutability": "payable",
      "type": "receive"
    },
    {
      "inputs": [
        {
          "internalType": "address",
          "name": "participant",
          "type": "address"
        }
      ],
      "name": "enroll",
      "outputs": [
        {
          "internalType": "uint256",
          "name": "",
          "type": "uint256"
        }
      ],
      "stateMutability": "nonpayable",
      "type": "function"
    },
    {
      "inputs": [],
      "name": "deposit",
      "outputs": [
        {
          "internalType": "uint256",
          "name": "",
          "type": "uint256"
        }
      ],
      "stateMutability": "payable",
      "type": "function"
    },
    {
      "inputs": [
        {
          "internalType": "address payable",
          "name": "_cEtherContract",
          "type": "address"
        }
      ],
      "name": "deposit_and_invest_compound",
      "outputs": [
        {
          "internalType": "uint256",
          "name": "",
          "type": "uint256"
        }
      ],
      "stateMutability": "payable",
      "type": "function"
    },
    {
      "inputs": [
        {
          "internalType": "uint256",
          "name": "withdrawAmount",
          "type": "uint256"
        }
      ],
      "name": "withdraw",
      "outputs": [
        {
          "internalType": "uint256",
          "name": "remainingBal",
          "type": "uint256"
        }
      ],
      "stateMutability": "nonpayable",
      "type": "function"
    },
    {
      "inputs": [
        {
          "internalType": "uint256",
          "name": "withdrawAmount",
          "type": "uint256"
        },
        {
          "internalType": "bool",
          "name": "redeemType",
          "type": "bool"
        },
        {
          "internalType": "address",
          "name": "_cEtherContract",
          "type": "address"
        }
      ],
      "name": "withdraw_and_redeem",
      "outputs": [
        {
          "internalType": "uint256",
          "name": "remainingBal",
          "type": "uint256"
        }
      ],
      "stateMutability": "nonpayable",
      "type": "function"
    },
    {
      "inputs": [],
      "name": "balance",
      "outputs": [
        {
          "internalType": "uint256",
          "name": "",
          "type": "uint256"
        }
      ],
      "stateMutability": "view",
      "type": "function"
    },
    {
      "inputs": [],
      "name": "depositsBalance",
      "outputs": [
        {
          "internalType": "uint256",
          "name": "",
          "type": "uint256"
        }
      ],
      "stateMutability": "view",
      "type": "function"
    },
    {
      "inputs": [],
      "name": "is_owner",
      "outputs": [
        {
          "internalType": "bool",
          "name": "",
          "type": "bool"
        }
      ],
      "stateMutability": "view",
      "type": "function"
    },
    {
      "inputs": [],
      "name": "get_owner",
      "outputs": [
        {
          "internalType": "address",
          "name": "",
          "type": "address"
        }
      ],
      "stateMutability": "view",
      "type": "function"
    },
    {
      "inputs": [],
      "name": "is_public",
      "outputs": [
        {
          "internalType": "bool",
          "name": "",
          "type": "bool"
        }
      ],
      "stateMutability": "view",
      "type": "function"
    },
    {
      "inputs": [
        {
          "internalType": "address",
          "name": "participant",
          "type": "address"
        }
      ],
      "name": "balanceParticipant",
      "outputs": [
        {
          "internalType": "uint256",
          "name": "",
          "type": "uint256"
        }
      ],
      "stateMutability": "view",
      "type": "function"
    },
    {
      "inputs": [
        {
          "internalType": "address",
          "name": "participant",
          "type": "address"
        }
      ],
      "name": "is_allowed",
      "outputs": [
        {
          "internalType": "bool",
          "name": "",
          "type": "bool"
        }
      ],
      "stateMutability": "view",
      "type": "function"
    },
    {
      "inputs": [],
      "name": "getParticipantList",
      "outputs": [
        {
          "internalType": "address[]",
          "name": "",
          "type": "address[]"
        }
      ],
      "stateMutability": "view",
      "type": "function"
    }
  ],
  "bytecode": "0x60806040523480156200001157600080fd5b5060405162002af738038062002af7833981810160405281019062000037919062000246565b816000806101000a81548160ff02191690831515021790555080600060016101000a81548173ffffffffffffffffffffffffffffffffffffffff021916908373ffffffffffffffffffffffffffffffffffffffff1602179055506000600260008060019054906101000a900473ffffffffffffffffffffffffffffffffffffffff1673ffffffffffffffffffffffffffffffffffffffff1673ffffffffffffffffffffffffffffffffffffffff168152602001908152602001600020819055506001600360008060019054906101000a900473ffffffffffffffffffffffffffffffffffffffff1673ffffffffffffffffffffffffffffffffffffffff1673ffffffffffffffffffffffffffffffffffffffff16815260200190815260200160002060006101000a81548160ff02191690831515021790555060008060156101000a81548160ff021916908360ff1602179055506001600060019054906101000a900473ffffffffffffffffffffffffffffffffffffffff169080600181540180825580915050600190039060005260206000200160009091909190916101000a81548173ffffffffffffffffffffffffffffffffffffffff021916908373ffffffffffffffffffffffffffffffffffffffff1602179055505050620002fb565b6000815190506200022981620002c7565b92915050565b6000815190506200024081620002e1565b92915050565b600080604083850312156200025a57600080fd5b60006200026a858286016200022f565b92505060206200027d8582860162000218565b9150509250929050565b60006200029482620002a7565b9050919050565b60008115159050919050565b600073ffffffffffffffffffffffffffffffffffffffff82169050919050565b620002d28162000287565b8114620002de57600080fd5b50565b620002ec816200029b565b8114620002f857600080fd5b50565b6127ec806200030b6000396000f3fe60806040526004361061012e5760003560e01c80639b6d29ab116100ab578063ba83d1a01161006f578063ba83d1a014610447578063c6fb501414610484578063d0ace48e146104c1578063d0e30db0146104fe578063ed214fff1461051c578063f6a3d24e1461054757610135565b80639b6d29ab14610359578063a82ffd8814610384578063ad721ff6146103b4578063b34d7e8f146103df578063b69ef8a81461041c57610135565b80632e1a7d4d116100f25780632e1a7d4d146102475780633549d8fb146102845780633b7ba25f146102c15780636d12856d146102fe5780638da5cb5b1461032e57610135565b806305488a2c1461013a5780630ac298dc14610177578063138fbe71146101a257806327e235e3146101cd5780632820aece1461020a57610135565b3661013557005b600080fd5b34801561014657600080fd5b50610161600480360381019061015c9190611e40565b610584565b60405161016e919061237f565b60405180910390f35b34801561018357600080fd5b5061018c6105cd565b6040516101999190612198565b60405180910390f35b3480156101ae57600080fd5b506101b76105f6565b6040516101c4919061237f565b60405180910390f35b3480156101d957600080fd5b506101f460048036038101906101ef9190611e40565b6106ec565b604051610201919061237f565b60405180910390f35b34801561021657600080fd5b50610231600480360381019061022c9190611f0a565b610704565b60405161023e9190612198565b60405180910390f35b34801561025357600080fd5b5061026e60048036038101906102699190611f0a565b610743565b60405161027b919061237f565b60405180910390f35b34801561029057600080fd5b506102ab60048036038101906102a69190611f5c565b610985565b6040516102b8919061237f565b60405180910390f35b3480156102cd57600080fd5b506102e860048036038101906102e39190611e92565b610bd5565b6040516102f5919061237f565b60405180910390f35b61031860048036038101906103139190611e69565b610e82565b604051610325919061237f565b60405180910390f35b34801561033a57600080fd5b50610343611176565b6040516103509190612198565b60405180910390f35b34801561036557600080fd5b5061036e61119c565b60405161037b91906121fe565b60405180910390f35b61039e60048036038101906103999190611e69565b6111b2565b6040516103ab91906121fe565b60405180910390f35b3480156103c057600080fd5b506103c961139b565b6040516103d691906121fe565b60405180910390f35b3480156103eb57600080fd5b5061040660048036038101906104019190611e40565b6113f3565b60405161041391906121fe565b60405180910390f35b34801561042857600080fd5b50610431611450565b60405161043e919061237f565b60405180910390f35b34801561045357600080fd5b5061046e60048036038101906104699190611e40565b611497565b60405161047b919061237f565b60405180910390f35b34801561049057600080fd5b506104ab60048036038101906104a69190611f5c565b61173a565b6040516104b891906121fe565b60405180910390f35b3480156104cd57600080fd5b506104e860048036038101906104e39190611f5c565b6118b3565b6040516104f591906121fe565b60405180910390f35b610506611a2c565b604051610513919061237f565b60405180910390f35b34801561052857600080fd5b50610531611d14565b60405161053e91906121dc565b60405180910390f35b34801561055357600080fd5b5061056e60048036038101906105699190611e40565b611da2565b60405161057b91906121fe565b60405180910390f35b6000600260008373ffffffffffffffffffffffffffffffffffffffff1673ffffffffffffffffffffffffffffffffffffffff168152602001908152602001600020549050919050565b60008060019054906101000a900473ffffffffffffffffffffffffffffffffffffffff16905090565b600080600180549050141561060e57600090506106e9565b6000805b6001805490508110156106e357600260006001838154811061065d577f4e487b7100000000000000000000000000000000000000000000000000000000600052603260045260246000fd5b9060005260206000200160009054906101000a900473ffffffffffffffffffffffffffffffffffffffff1673ffffffffffffffffffffffffffffffffffffffff1673ffffffffffffffffffffffffffffffffffffffff16815260200190815260200160002054826106ce91906123e4565b915080806106db906124d5565b915050610612565b50809150505b90565b60026020528060005260406000206000915090505481565b6001818154811061071457600080fd5b906000526020600020016000915054906101000a900473ffffffffffffffffffffffffffffffffffffffff1681565b600060011515600360003373ffffffffffffffffffffffffffffffffffffffff1673ffffffffffffffffffffffffffffffffffffffff16815260200190815260200160002060009054906101000a900460ff161515146107d8576040517f08c379a00000000000000000000000000000000000000000000000000000000081526004016107cf90612311565b60405180910390fd5b600260003373ffffffffffffffffffffffffffffffffffffffff1673ffffffffffffffffffffffffffffffffffffffff1681526020019081526020016000205482111561085a576040517f08c379a0000000000000000000000000000000000000000000000000000000008152600401610851906122f1565b60405180910390fd5b600260003373ffffffffffffffffffffffffffffffffffffffff1673ffffffffffffffffffffffffffffffffffffffff16815260200190815260200160002054821161093e5781600260003373ffffffffffffffffffffffffffffffffffffffff1673ffffffffffffffffffffffffffffffffffffffff16815260200190815260200160002060008282546108ef919061243a565b925050819055503373ffffffffffffffffffffffffffffffffffffffff166108fc839081150290604051600060405180830381858888f1935050505015801561093c573d6000803e3d6000fd5b505b600260003373ffffffffffffffffffffffffffffffffffffffff1673ffffffffffffffffffffffffffffffffffffffff168152602001908152602001600020549050919050565b600060011515600360003373ffffffffffffffffffffffffffffffffffffffff1673ffffffffffffffffffffffffffffffffffffffff16815260200190815260200160002060009054906101000a900460ff16151514610a1a576040517f08c379a0000000000000000000000000000000000000000000000000000000008152600401610a1190612311565b60405180910390fd5b600260003373ffffffffffffffffffffffffffffffffffffffff1673ffffffffffffffffffffffffffffffffffffffff16815260200190815260200160002054841115610a9c576040517f08c379a0000000000000000000000000000000000000000000000000000000008152600401610a93906122f1565b60405180910390fd5b610aa784848461173a565b50600260003373ffffffffffffffffffffffffffffffffffffffff1673ffffffffffffffffffffffffffffffffffffffff168152602001908152602001600020548411610b8c5783600260003373ffffffffffffffffffffffffffffffffffffffff1673ffffffffffffffffffffffffffffffffffffffff1681526020019081526020016000206000828254610b3d919061243a565b925050819055503373ffffffffffffffffffffffffffffffffffffffff166108fc859081150290604051600060405180830381858888f19350505050158015610b8a573d6000803e3d6000fd5b505b600260003373ffffffffffffffffffffffffffffffffffffffff1673ffffffffffffffffffffffffffffffffffffffff1681526020019081526020016000205490509392505050565b600080849050600084905060008173ffffffffffffffffffffffffffffffffffffffff1663bd6d894d6040518163ffffffff1660e01b8152600401602060405180830381600087803b158015610c2a57600080fd5b505af1158015610c3e573d6000803e3d6000fd5b505050506040513d601f19601f82011682018060405250810190610c629190611f33565b90507f8d1cced004452bd270777a8c670f9f7e7c4fdde56f2db331fe289d39dc2624ad81604051610c939190612295565b60405180910390a160008273ffffffffffffffffffffffffffffffffffffffff1663ae9d70b06040518163ffffffff1660e01b8152600401602060405180830381600087803b158015610ce557600080fd5b505af1158015610cf9573d6000803e3d6000fd5b505050506040513d601f19601f82011682018060405250810190610d1d9190611f33565b90507f8d1cced004452bd270777a8c670f9f7e7c4fdde56f2db331fe289d39dc2624ad81604051610d4e91906122c3565b60405180910390a18373ffffffffffffffffffffffffffffffffffffffff1663095ea7b388886040518363ffffffff1660e01b8152600401610d919291906121b3565b602060405180830381600087803b158015610dab57600080fd5b505af1158015610dbf573d6000803e3d6000fd5b505050506040513d601f19601f82011682018060405250810190610de39190611ee1565b5060008373ffffffffffffffffffffffffffffffffffffffff1663a0712d68886040518263ffffffff1660e01b8152600401610e1f919061237f565b602060405180830381600087803b158015610e3957600080fd5b505af1158015610e4d573d6000803e3d6000fd5b505050506040513d601f19601f82011682018060405250810190610e719190611f33565b905080955050505050509392505050565b600060011515600360003373ffffffffffffffffffffffffffffffffffffffff1673ffffffffffffffffffffffffffffffffffffffff16815260200190815260200160002060009054906101000a900460ff1615151480610ef457506001151560008054906101000a900460ff161515145b610f33576040517f08c379a0000000000000000000000000000000000000000000000000000000008152600401610f2a90612311565b60405180910390fd5b60001515610f40336113f3565b15151415611081576000601581819054906101000a900460ff1680929190610f679061251e565b91906101000a81548160ff021916908360ff160217905550506001339080600181540180825580915050600190039060005260206000200160009091909190916101000a81548173ffffffffffffffffffffffffffffffffffffffff021916908373ffffffffffffffffffffffffffffffffffffffff1602179055506000600260003373ffffffffffffffffffffffffffffffffffffffff1673ffffffffffffffffffffffffffffffffffffffff168152602001908152602001600020819055506001600360003373ffffffffffffffffffffffffffffffffffffffff1673ffffffffffffffffffffffffffffffffffffffff16815260200190815260200160002060006101000a81548160ff0219169083151502179055505b34600260003373ffffffffffffffffffffffffffffffffffffffff1673ffffffffffffffffffffffffffffffffffffffff16815260200190815260200160002060008282546110d091906123e4565b925050819055506110e0826111b2565b503373ffffffffffffffffffffffffffffffffffffffff167fa8126f7572bb1fdeae5b5aa9ec126438b91f658a07873f009d041ae690f3a19334604051611127919061237f565b60405180910390a2600260003373ffffffffffffffffffffffffffffffffffffffff1673ffffffffffffffffffffffffffffffffffffffff168152602001908152602001600020549050919050565b600060019054906101000a900473ffffffffffffffffffffffffffffffffffffffff1681565b60008060009054906101000a900460ff16905090565b60008082905060008173ffffffffffffffffffffffffffffffffffffffff1663bd6d894d6040518163ffffffff1660e01b8152600401602060405180830381600087803b15801561120257600080fd5b505af1158015611216573d6000803e3d6000fd5b505050506040513d601f19601f8201168201806040525081019061123a9190611f33565b90507f8d1cced004452bd270777a8c670f9f7e7c4fdde56f2db331fe289d39dc2624ad8160405161126b9190612247565b60405180910390a160008273ffffffffffffffffffffffffffffffffffffffff1663ae9d70b06040518163ffffffff1660e01b8152600401602060405180830381600087803b1580156112bd57600080fd5b505af11580156112d1573d6000803e3d6000fd5b505050506040513d601f19601f820116820180604052508101906112f59190611f33565b90507f8d1cced004452bd270777a8c670f9f7e7c4fdde56f2db331fe289d39dc2624ad816040516113269190612351565b60405180910390a18273ffffffffffffffffffffffffffffffffffffffff16631249c58b346040518263ffffffff1660e01b81526004016000604051808303818588803b15801561137657600080fd5b505af115801561138a573d6000803e3d6000fd5b505050505060019350505050919050565b60003373ffffffffffffffffffffffffffffffffffffffff16600060019054906101000a900473ffffffffffffffffffffffffffffffffffffffff1673ffffffffffffffffffffffffffffffffffffffff1614905090565b600060011515600360008473ffffffffffffffffffffffffffffffffffffffff1673ffffffffffffffffffffffffffffffffffffffff16815260200190815260200160002060009054906101000a900460ff161515149050919050565b6000600260003373ffffffffffffffffffffffffffffffffffffffff1673ffffffffffffffffffffffffffffffffffffffff16815260200190815260200160002054905090565b60008060019054906101000a900473ffffffffffffffffffffffffffffffffffffffff1673ffffffffffffffffffffffffffffffffffffffff163373ffffffffffffffffffffffffffffffffffffffff1614611528576040517f08c379a000000000000000000000000000000000000000000000000000000000815260040161151f90612331565b60405180910390fd5b60001515600360008473ffffffffffffffffffffffffffffffffffffffff1673ffffffffffffffffffffffffffffffffffffffff16815260200190815260200160002060009054906101000a900460ff161515146115bb576040517f08c379a00000000000000000000000000000000000000000000000000000000081526004016115b290612275565b60405180910390fd5b6000601581819054906101000a900460ff16809291906115da9061251e565b91906101000a81548160ff021916908360ff160217905550506001829080600181540180825580915050600190039060005260206000200160009091909190916101000a81548173ffffffffffffffffffffffffffffffffffffffff021916908373ffffffffffffffffffffffffffffffffffffffff1602179055506000600260008473ffffffffffffffffffffffffffffffffffffffff1673ffffffffffffffffffffffffffffffffffffffff168152602001908152602001600020819055506001600360008473ffffffffffffffffffffffffffffffffffffffff1673ffffffffffffffffffffffffffffffffffffffff16815260200190815260200160002060006101000a81548160ff021916908315150217905550600260008373ffffffffffffffffffffffffffffffffffffffff1673ffffffffffffffffffffffffffffffffffffffff168152602001908152602001600020549050919050565b60008082905060006001151585151514156117e1578173ffffffffffffffffffffffffffffffffffffffff1663db006a75876040518263ffffffff1660e01b8152600401611788919061237f565b602060405180830381600087803b1580156117a257600080fd5b505af11580156117b6573d6000803e3d6000fd5b505050506040513d601f19601f820116820180604052508101906117da9190611f33565b905061186f565b8173ffffffffffffffffffffffffffffffffffffffff1663852a12e3876040518263ffffffff1660e01b815260040161181a919061237f565b602060405180830381600087803b15801561183457600080fd5b505af1158015611848573d6000803e3d6000fd5b505050506040513d601f19601f8201168201806040525081019061186c9190611f33565b90505b7f8d1cced004452bd270777a8c670f9f7e7c4fdde56f2db331fe289d39dc2624ad8160405161189e9190612219565b60405180910390a16001925050509392505050565b600080829050600060011515851515141561195a578173ffffffffffffffffffffffffffffffffffffffff1663db006a75876040518263ffffffff1660e01b8152600401611901919061237f565b602060405180830381600087803b15801561191b57600080fd5b505af115801561192f573d6000803e3d6000fd5b505050506040513d601f19601f820116820180604052508101906119539190611f33565b90506119e8565b8173ffffffffffffffffffffffffffffffffffffffff1663852a12e3876040518263ffffffff1660e01b8152600401611993919061237f565b602060405180830381600087803b1580156119ad57600080fd5b505af11580156119c1573d6000803e3d6000fd5b505050506040513d601f19601f820116820180604052508101906119e59190611f33565b90505b7f8d1cced004452bd270777a8c670f9f7e7c4fdde56f2db331fe289d39dc2624ad81604051611a179190612219565b60405180910390a16001925050509392505050565b600060011515600360003373ffffffffffffffffffffffffffffffffffffffff1673ffffffffffffffffffffffffffffffffffffffff16815260200190815260200160002060009054906101000a900460ff1615151480611a9e57506001151560008054906101000a900460ff161515145b611add576040517f08c379a0000000000000000000000000000000000000000000000000000000008152600401611ad490612311565b60405180910390fd5b60001515611aea336113f3565b15151415611c2b576000601581819054906101000a900460ff1680929190611b119061251e565b91906101000a81548160ff021916908360ff160217905550506001339080600181540180825580915050600190039060005260206000200160009091909190916101000a81548173ffffffffffffffffffffffffffffffffffffffff021916908373ffffffffffffffffffffffffffffffffffffffff1602179055506000600260003373ffffffffffffffffffffffffffffffffffffffff1673ffffffffffffffffffffffffffffffffffffffff168152602001908152602001600020819055506001600360003373ffffffffffffffffffffffffffffffffffffffff1673ffffffffffffffffffffffffffffffffffffffff16815260200190815260200160002060006101000a81548160ff0219169083151502179055505b34600260003373ffffffffffffffffffffffffffffffffffffffff1673ffffffffffffffffffffffffffffffffffffffff1681526020019081526020016000206000828254611c7a91906123e4565b925050819055503373ffffffffffffffffffffffffffffffffffffffff167fa8126f7572bb1fdeae5b5aa9ec126438b91f658a07873f009d041ae690f3a19334604051611cc7919061237f565b60405180910390a2600260003373ffffffffffffffffffffffffffffffffffffffff1673ffffffffffffffffffffffffffffffffffffffff16815260200190815260200160002054905090565b60606001805480602002602001604051908101604052809291908181526020018280548015611d9857602002820191906000526020600020905b8160009054906101000a900473ffffffffffffffffffffffffffffffffffffffff1673ffffffffffffffffffffffffffffffffffffffff1681526020019060010190808311611d4e575b5050505050905090565b60036020528060005260406000206000915054906101000a900460ff1681565b600081359050611dd18161275a565b92915050565b600081359050611de681612771565b92915050565b600081359050611dfb81612788565b92915050565b600081519050611e1081612788565b92915050565b600081359050611e258161279f565b92915050565b600081519050611e3a8161279f565b92915050565b600060208284031215611e5257600080fd5b6000611e6084828501611dc2565b91505092915050565b600060208284031215611e7b57600080fd5b6000611e8984828501611dd7565b91505092915050565b600080600060608486031215611ea757600080fd5b6000611eb586828701611dc2565b9350506020611ec686828701611dc2565b9250506040611ed786828701611e16565b9150509250925092565b600060208284031215611ef357600080fd5b6000611f0184828501611e01565b91505092915050565b600060208284031215611f1c57600080fd5b6000611f2a84828501611e16565b91505092915050565b600060208284031215611f4557600080fd5b6000611f5384828501611e2b565b91505092915050565b600080600060608486031215611f7157600080fd5b6000611f7f86828701611e16565b9350506020611f9086828701611dec565b9250506040611fa186828701611dc2565b9150509250925092565b6000611fb78383611fc3565b60208301905092915050565b611fcc8161246e565b82525050565b611fdb8161246e565b82525050565b6000611fec826123aa565b611ff681856123c2565b93506120018361239a565b8060005b838110156120325781516120198882611fab565b9750612024836123b5565b925050600181019050612005565b5085935050505092915050565b61204881612492565b82525050565b600061205b6024836123d3565b915061206682612577565b604082019050919050565b600061207e6023836123d3565b9150612089826125c6565b604082019050919050565b60006120a16010836123d3565b91506120ac82612615565b602082019050919050565b60006120c4601b836123d3565b91506120cf8261263e565b602082019050919050565b60006120e76018836123d3565b91506120f282612667565b602082019050919050565b600061210a602e836123d3565b915061211582612690565b604082019050919050565b600061212d600b836123d3565b9150612138826126df565b602082019050919050565b6000612150600e836123d3565b915061215b82612708565b602082019050919050565b60006121736020836123d3565b915061217e82612731565b602082019050919050565b612192816124be565b82525050565b60006020820190506121ad6000830184611fd2565b92915050565b60006040820190506121c86000830185611fd2565b6121d56020830184612189565b9392505050565b600060208201905081810360008301526121f68184611fe1565b905092915050565b6000602082019050612213600083018461203f565b92915050565b600060408201905081810360008301526122328161204e565b90506122416020830184612189565b92915050565b6000604082019050818103600083015261226081612071565b905061226f6020830184612189565b92915050565b6000602082019050818103600083015261228e81612094565b9050919050565b600060408201905081810360008301526122ae816120b7565b90506122bd6020830184612189565b92915050565b600060408201905081810360008301526122dc816120da565b90506122eb6020830184612189565b92915050565b6000602082019050818103600083015261230a816120fd565b9050919050565b6000602082019050818103600083015261232a81612120565b9050919050565b6000602082019050818103600083015261234a81612143565b9050919050565b6000604082019050818103600083015261236a81612166565b90506123796020830184612189565b92915050565b60006020820190506123946000830184612189565b92915050565b6000819050602082019050919050565b600081519050919050565b6000602082019050919050565b600082825260208201905092915050565b600082825260208201905092915050565b60006123ef826124be565b91506123fa836124be565b9250827fffffffffffffffffffffffffffffffffffffffffffffffffffffffffffffffff0382111561242f5761242e612548565b5b828201905092915050565b6000612445826124be565b9150612450836124be565b92508282101561246357612462612548565b5b828203905092915050565b60006124798261249e565b9050919050565b600061248b8261249e565b9050919050565b60008115159050919050565b600073ffffffffffffffffffffffffffffffffffffffff82169050919050565b6000819050919050565b600060ff82169050919050565b60006124e0826124be565b91507fffffffffffffffffffffffffffffffffffffffffffffffffffffffffffffffff82141561251357612512612548565b5b600182019050919050565b6000612529826124c8565b915060ff82141561253d5761253c612548565b5b600182019050919050565b7f4e487b7100000000000000000000000000000000000000000000000000000000600052601160045260246000fd5b7f49662074686973206973206e6f7420302c2074686572652077617320616e206560008201527f72726f7200000000000000000000000000000000000000000000000000000000602082015250565b7f45786368616e6765205261746520287363616c6564207570206279203165313860008201527f293a200000000000000000000000000000000000000000000000000000000000602082015250565b7f416c726561647920656e726f6c6c656400000000000000000000000000000000600082015250565b7f45786368616e6765205261746520287363616c6564207570293a200000000000600082015250565b7f537570706c7920526174653a20287363616c6564207570290000000000000000600082015250565b7f4572726f7220616d6f756e742c2063616e2774207769746864726177206d6f7260008201527f65207468616e206465706f736974000000000000000000000000000000000000602082015250565b7f4e6f7420616c6c6f776564000000000000000000000000000000000000000000600082015250565b7f4e6f7420617574686f72697a6564000000000000000000000000000000000000600082015250565b7f537570706c7920526174653a20287363616c6564207570206279203165313829600082015250565b6127638161246e565b811461276e57600080fd5b50565b61277a81612480565b811461278557600080fd5b50565b61279181612492565b811461279c57600080fd5b50565b6127a8816124be565b81146127b357600080fd5b5056fea2646970667358221220524b6b48db8851ffcebbcab8a847efb7149ae1c11a4b8512d97ffbe2b87cf8b864736f6c63430008010033",
  "immutableReferences": {},
  "source": "// SPDX-License-Identifier: MIT\npragma solidity >=0.8.0;\n\nimport \"./compound/Compound.sol\";\n\ncontract PoolFactory is Compound {\n    bool private isPublic;\n    address public owner;\n    uint8 private participantCount;\n    address[] public participantsList;\n    mapping(address => uint256) public balances;\n    mapping(address => bool) public exists;\n\n    // Log the event about a deposit being made by an address and its amount\n    event LogDepositMade(address indexed accountAddress, uint256 amount);\n\n    constructor(bool _isPublic, address _owner) {\n        /* Set the owner to the creator of this contract */\n        isPublic = _isPublic;\n        owner = _owner;\n        balances[owner] = 0;\n        exists[owner] = true;\n        participantCount = 0;\n        participantsList.push(owner);\n    }\n\n    /// @notice Enroll a customer with the bank,\n    /// Only the owner can enroll a participant\n    /// @return The balance of the user after enrolling\n    function enroll(address participant) public returns (uint256) {\n        require(msg.sender == owner, \"Not authorized\");\n        require(exists[participant] == false, \"Already enrolled\");\n        participantCount++;\n        participantsList.push(participant);\n        balances[participant] = 0;\n        exists[participant] = true;\n        return balances[participant];\n    }\n\n    /// @notice Deposit ether into bank, requires method is \"payable\"\n    /// @return The balance of the user after the deposit is made\n    function deposit() public payable returns (uint256) {\n        require(exists[msg.sender] == true || isPublic == true, \"Not allowed\");\n        if (is_allowed(msg.sender) == false) {\n            participantCount++;\n            participantsList.push(msg.sender);\n            balances[msg.sender] = 0;\n            exists[msg.sender] = true;\n        }\n        balances[msg.sender] += msg.value;\n        emit LogDepositMade(msg.sender, msg.value);\n        return balances[msg.sender];\n    }\n\n    function deposit_and_invest_compound(address payable _cEtherContract)\n        public\n        payable\n        returns (uint256)\n    {\n        require(exists[msg.sender] == true || isPublic == true, \"Not allowed\");\n        if (is_allowed(msg.sender) == false) {\n            participantCount++;\n            participantsList.push(msg.sender);\n            balances[msg.sender] = 0;\n            exists[msg.sender] = true;\n        }\n        balances[msg.sender] += msg.value;\n        supplyEthToCompound(_cEtherContract);\n        emit LogDepositMade(msg.sender, msg.value);\n        return balances[msg.sender];\n    }\n\n    /// @notice Withdraw ether from bank\n    /// @return remainingBal : the balance remaining for the user\n    function withdraw(uint256 withdrawAmount)\n        public\n        returns (uint256 remainingBal)\n    {\n        require(exists[msg.sender] == true, \"Not allowed\");\n        require(withdrawAmount <= balances[msg.sender], \"Error amount, can't withdraw more than deposit\");\n        // Check enough balance available, otherwise just return balance\n        if (withdrawAmount <= balances[msg.sender]) {\n            balances[msg.sender] -= withdrawAmount;\n            payable(msg.sender).transfer(withdrawAmount);\n        }\n        return balances[msg.sender];\n    }\n\n    function withdraw_and_redeem(uint256 withdrawAmount, bool redeemType,\n        address _cEtherContract)\n        public\n        returns (uint256 remainingBal)\n    {\n        require(exists[msg.sender] == true, \"Not allowed\");\n        require(withdrawAmount <= balances[msg.sender], \"Error amount, can't withdraw more than deposit\");\n        // Check enough balance available, otherwise just return balance\n        redeemCEth(withdrawAmount, redeemType, _cEtherContract);\n        if (withdrawAmount <= balances[msg.sender]) {\n            balances[msg.sender] -= withdrawAmount;\n            payable(msg.sender).transfer(withdrawAmount);\n        }\n        return balances[msg.sender];\n    }\n\n    /// @notice Just reads balance of the account requesting, so \"constant\"\n    /// @return The balance of the user\n    function balance() public view returns (uint256) {\n        return balances[msg.sender];\n    }\n\n    /// @return The balance of the Pool contract\n    function depositsBalance() public view returns (uint256) {\n        if (participantsList.length == 0) {\n            return 0;\n        }\n        uint256 res = 0;\n        for (uint256 index = 0; index < participantsList.length; index++) {\n            res += balances[participantsList[index]];\n        }\n        return res;\n    }\n\n    function is_owner() public view returns (bool) {\n        return owner == msg.sender;\n    }\n\n    function get_owner() public view returns (address) {\n        return owner;\n    }\n\n    function is_public() public view returns(bool) {\n        return isPublic;\n    }\n\n    function balanceParticipant(address participant)\n        public\n        view\n        returns (uint256)\n    {\n        return balances[participant];\n    }\n\n    function is_allowed(address participant) public view returns (bool) {\n        return exists[participant] == true;\n    }\n\n    /// @return the participant list\n    function getParticipantList() public view returns (address[] memory) {\n        return participantsList;\n    }\n}\n",
  "sourcePath": "/home/eddine/Documents/project/blockchain/Ohreee/pool-contracts/contracts/PoolFactory.sol",
  "compiler": {
    "name": "solc",
    "version": "0.8.1+commit.df193b15.Emscripten.clang"
  },
  "schemaVersion": "3.3.2",
  "updatedAt": "2021-04-19T00:26:12.595Z",
  "devdoc": {
    "kind": "dev",
    "methods": {
      "balance()": {
        "returns": {
          "_0": "The balance of the user"
        }
      },
      "deposit()": {
        "returns": {
          "_0": "The balance of the user after the deposit is made"
        }
      },
      "depositsBalance()": {
        "returns": {
          "_0": "The balance of the Pool contract"
        }
      },
      "enroll(address)": {
        "returns": {
          "_0": "The balance of the user after enrolling"
        }
      },
      "getParticipantList()": {
        "returns": {
          "_0": "the participant list"
        }
      },
      "withdraw(uint256)": {
        "returns": {
          "remainingBal": ": the balance remaining for the user"
        }
      }
    },
    "version": 1
  },
  "userdoc": {
    "kind": "user",
    "methods": {
      "balance()": {
        "notice": "Just reads balance of the account requesting, so \"constant\""
      },
      "deposit()": {
        "notice": "Deposit ether into bank, requires method is \"payable\""
      },
      "enroll(address)": {
        "notice": "Enroll a customer with the bank, Only the owner can enroll a participant"
      },
      "withdraw(uint256)": {
        "notice": "Withdraw ether from bank"
      }
    },
    "version": 1
  }
}