{
  "contractName": "PoolRecorder",
  "abi": [
    {
      "anonymous": false,
      "inputs": [
        {
          "indexed": false,
          "internalType": "address",
          "name": "poolAddress",
          "type": "address"
        }
      ],
      "name": "PoolAdded",
      "type": "event"
    },
    {
      "inputs": [
        {
          "internalType": "address",
          "name": "",
          "type": "address"
        }
      ],
      "name": "poolRecorded",
      "outputs": [
        {
          "internalType": "string",
          "name": "name",
          "type": "string"
        },
        {
          "internalType": "string",
          "name": "description",
          "type": "string"
        },
        {
          "internalType": "address",
          "name": "owner",
          "type": "address"
        },
        {
          "internalType": "address",
          "name": "PoolAddress",
          "type": "address"
        },
        {
          "internalType": "bool",
          "name": "visible",
          "type": "bool"
        }
      ],
      "stateMutability": "view",
      "type": "function"
    },
    {
      "inputs": [
        {
          "internalType": "string",
          "name": "_name",
          "type": "string"
        },
        {
          "internalType": "string",
          "name": "_description",
          "type": "string"
        },
        {
          "internalType": "bool",
          "name": "_visible",
          "type": "bool"
        }
      ],
      "name": "createPool",
      "outputs": [
        {
          "internalType": "address",
          "name": "",
          "type": "address"
        }
      ],
      "stateMutability": "nonpayable",
      "type": "function"
    },
    {
      "inputs": [
        {
          "internalType": "address",
          "name": "poolAddress",
          "type": "address"
        },
        {
          "internalType": "address",
          "name": "_owner",
          "type": "address"
        },
        {
          "internalType": "string",
          "name": "_name",
          "type": "string"
        },
        {
          "internalType": "string",
          "name": "_description",
          "type": "string"
        },
        {
          "internalType": "bool",
          "name": "_visible",
          "type": "bool"
        }
      ],
      "name": "addPool",
      "outputs": [],
      "stateMutability": "nonpayable",
      "type": "function"
    },
    {
      "inputs": [
        {
          "internalType": "address",
          "name": "poolAddress",
          "type": "address"
        }
      ],
      "name": "removePool",
      "outputs": [],
      "stateMutability": "nonpayable",
      "type": "function"
    },
    {
      "inputs": [],
      "name": "getListPools",
      "outputs": [
        {
          "internalType": "address[]",
          "name": "",
          "type": "address[]"
        }
      ],
      "stateMutability": "view",
      "type": "function"
    },
    {
      "inputs": [
        {
          "internalType": "address",
          "name": "poolAddress",
          "type": "address"
        }
      ],
      "name": "getPoolInfo",
      "outputs": [
        {
          "components": [
            {
              "internalType": "string",
              "name": "name",
              "type": "string"
            },
            {
              "internalType": "string",
              "name": "description",
              "type": "string"
            },
            {
              "internalType": "address",
              "name": "owner",
              "type": "address"
            },
            {
              "internalType": "address",
              "name": "PoolAddress",
              "type": "address"
            },
            {
              "internalType": "bool",
              "name": "visible",
              "type": "bool"
            }
          ],
          "internalType": "struct PoolRecorder.Pool",
          "name": "",
          "type": "tuple"
        }
      ],
      "stateMutability": "view",
      "type": "function"
    }
  ],
  "bytecode": "0x608060405234801561001057600080fd5b506122fe806100206000396000f3fe608060405234801561001057600080fd5b50600436106100625760003560e01c8063036e4b151461006757806306bfa938146100975780633b7d0946146100c7578063995632ae146100e3578063ab8a107714610101578063d9930dc814610135575b600080fd5b610081600480360381019061007c9190610cbf565b610151565b60405161008e9190610edf565b60405180910390f35b6100b160048036038101906100ac9190610bef565b610197565b6040516100be9190610f7d565b60405180910390f35b6100e160048036038101906100dc9190610bef565b6103db565b005b6100eb61060f565b6040516100f89190610efa565b60405180910390f35b61011b60048036038101906101169190610bef565b61069d565b60405161012c959493929190610f1c565b60405180910390f35b61014f600480360381019061014a9190610c18565b610830565b005b60008060405161016090610a50565b604051809103906000f08015801561017c573d6000803e3d6000fd5b50905061018c8133878787610830565b809150509392505050565b61019f610a5d565b600160008373ffffffffffffffffffffffffffffffffffffffff1673ffffffffffffffffffffffffffffffffffffffff1681526020019081526020016000206040518060a00160405290816000820180546101f990611119565b80601f016020809104026020016040519081016040528092919081815260200182805461022590611119565b80156102725780601f1061024757610100808354040283529160200191610272565b820191906000526020600020905b81548152906001019060200180831161025557829003601f168201915b5050505050815260200160018201805461028b90611119565b80601f01602080910402602001604051908101604052809291908181526020018280546102b790611119565b80156103045780601f106102d957610100808354040283529160200191610304565b820191906000526020600020905b8154815290600101906020018083116102e757829003601f168201915b505050505081526020016002820160009054906101000a900473ffffffffffffffffffffffffffffffffffffffff1673ffffffffffffffffffffffffffffffffffffffff1673ffffffffffffffffffffffffffffffffffffffff1681526020016003820160009054906101000a900473ffffffffffffffffffffffffffffffffffffffff1673ffffffffffffffffffffffffffffffffffffffff1673ffffffffffffffffffffffffffffffffffffffff1681526020016003820160149054906101000a900460ff1615151515815250509050919050565b60005b60008054905081101561060b578173ffffffffffffffffffffffffffffffffffffffff166000828154811061043c577f4e487b7100000000000000000000000000000000000000000000000000000000600052603260045260246000fd5b9060005260206000200160009054906101000a900473ffffffffffffffffffffffffffffffffffffffff1673ffffffffffffffffffffffffffffffffffffffff1614156105f85760006001600080549050610497919061105b565b815481106104ce577f4e487b7100000000000000000000000000000000000000000000000000000000600052603260045260246000fd5b9060005260206000200160009054906101000a900473ffffffffffffffffffffffffffffffffffffffff1660008281548110610533577f4e487b7100000000000000000000000000000000000000000000000000000000600052603260045260246000fd5b9060005260206000200160006101000a81548173ffffffffffffffffffffffffffffffffffffffff021916908373ffffffffffffffffffffffffffffffffffffffff1602179055506000600160008054905061058f919061105b565b815481106105c6577f4e487b7100000000000000000000000000000000000000000000000000000000600052603260045260246000fd5b9060005260206000200160006101000a81549073ffffffffffffffffffffffffffffffffffffffff021916905561060b565b80806106039061117c565b9150506103de565b5050565b6060600080548060200260200160405190810160405280929190818152602001828054801561069357602002820191906000526020600020905b8160009054906101000a900473ffffffffffffffffffffffffffffffffffffffff1673ffffffffffffffffffffffffffffffffffffffff1681526020019060010190808311610649575b5050505050905090565b60016020528060005260406000206000915090508060000180546106c090611119565b80601f01602080910402602001604051908101604052809291908181526020018280546106ec90611119565b80156107395780601f1061070e57610100808354040283529160200191610739565b820191906000526020600020905b81548152906001019060200180831161071c57829003601f168201915b50505050509080600101805461074e90611119565b80601f016020809104026020016040519081016040528092919081815260200182805461077a90611119565b80156107c75780601f1061079c576101008083540402835291602001916107c7565b820191906000526020600020905b8154815290600101906020018083116107aa57829003601f168201915b5050505050908060020160009054906101000a900473ffffffffffffffffffffffffffffffffffffffff16908060030160009054906101000a900473ffffffffffffffffffffffffffffffffffffffff16908060030160149054906101000a900460ff16905085565b6000859080600181540180825580915050600190039060005260206000200160009091909190916101000a81548173ffffffffffffffffffffffffffffffffffffffff021916908373ffffffffffffffffffffffffffffffffffffffff1602179055506040518060a001604052808481526020018381526020018573ffffffffffffffffffffffffffffffffffffffff1681526020018673ffffffffffffffffffffffffffffffffffffffff168152602001821515815250600160008773ffffffffffffffffffffffffffffffffffffffff1673ffffffffffffffffffffffffffffffffffffffff1681526020019081526020016000206000820151816000019080519060200190610943929190610aba565b506020820151816001019080519060200190610960929190610aba565b5060408201518160020160006101000a81548173ffffffffffffffffffffffffffffffffffffffff021916908373ffffffffffffffffffffffffffffffffffffffff16021790555060608201518160030160006101000a81548173ffffffffffffffffffffffffffffffffffffffff021916908373ffffffffffffffffffffffffffffffffffffffff16021790555060808201518160030160146101000a81548160ff0219169083151502179055509050507f73cca62ab1b520c9715bf4e6c71e3e518c754e7148f65102f43289a7df0efea685604051610a419190610edf565b60405180910390a15050505050565b6110378061129283390190565b6040518060a001604052806060815260200160608152602001600073ffffffffffffffffffffffffffffffffffffffff168152602001600073ffffffffffffffffffffffffffffffffffffffff1681526020016000151581525090565b828054610ac690611119565b90600052602060002090601f016020900481019282610ae85760008555610b2f565b82601f10610b0157805160ff1916838001178555610b2f565b82800160010185558215610b2f579182015b82811115610b2e578251825591602001919060010190610b13565b5b509050610b3c9190610b40565b5090565b5b80821115610b59576000816000905550600101610b41565b5090565b6000610b70610b6b84610fc4565b610f9f565b905082815260208101848484011115610b8857600080fd5b610b938482856110d7565b509392505050565b600081359050610baa81611263565b92915050565b600081359050610bbf8161127a565b92915050565b600082601f830112610bd657600080fd5b8135610be6848260208601610b5d565b91505092915050565b600060208284031215610c0157600080fd5b6000610c0f84828501610b9b565b91505092915050565b600080600080600060a08688031215610c3057600080fd5b6000610c3e88828901610b9b565b9550506020610c4f88828901610b9b565b945050604086013567ffffffffffffffff811115610c6c57600080fd5b610c7888828901610bc5565b935050606086013567ffffffffffffffff811115610c9557600080fd5b610ca188828901610bc5565b9250506080610cb288828901610bb0565b9150509295509295909350565b600080600060608486031215610cd457600080fd5b600084013567ffffffffffffffff811115610cee57600080fd5b610cfa86828701610bc5565b935050602084013567ffffffffffffffff811115610d1757600080fd5b610d2386828701610bc5565b9250506040610d3486828701610bb0565b9150509250925092565b6000610d4a8383610d56565b60208301905092915050565b610d5f8161108f565b82525050565b610d6e8161108f565b82525050565b6000610d7f82611005565b610d898185611028565b9350610d9483610ff5565b8060005b83811015610dc5578151610dac8882610d3e565b9750610db78361101b565b925050600181019050610d98565b5085935050505092915050565b610ddb816110a1565b82525050565b610dea816110a1565b82525050565b6000610dfb82611010565b610e058185611039565b9350610e158185602086016110e6565b610e1e81611252565b840191505092915050565b6000610e3482611010565b610e3e818561104a565b9350610e4e8185602086016110e6565b610e5781611252565b840191505092915050565b600060a0830160008301518482036000860152610e7f8282610df0565b91505060208301518482036020860152610e998282610df0565b9150506040830151610eae6040860182610d56565b506060830151610ec16060860182610d56565b506080830151610ed46080860182610dd2565b508091505092915050565b6000602082019050610ef46000830184610d65565b92915050565b60006020820190508181036000830152610f148184610d74565b905092915050565b600060a0820190508181036000830152610f368188610e29565b90508181036020830152610f4a8187610e29565b9050610f596040830186610d65565b610f666060830185610d65565b610f736080830184610de1565b9695505050505050565b60006020820190508181036000830152610f978184610e62565b905092915050565b6000610fa9610fba565b9050610fb5828261114b565b919050565b6000604051905090565b600067ffffffffffffffff821115610fdf57610fde611223565b5b610fe882611252565b9050602081019050919050565b6000819050602082019050919050565b600081519050919050565b600081519050919050565b6000602082019050919050565b600082825260208201905092915050565b600082825260208201905092915050565b600082825260208201905092915050565b6000611066826110cd565b9150611071836110cd565b925082821015611084576110836111c5565b5b828203905092915050565b600061109a826110ad565b9050919050565b60008115159050919050565b600073ffffffffffffffffffffffffffffffffffffffff82169050919050565b6000819050919050565b82818337600083830152505050565b60005b838110156111045780820151818401526020810190506110e9565b83811115611113576000848401525b50505050565b6000600282049050600182168061113157607f821691505b60208210811415611145576111446111f4565b5b50919050565b61115482611252565b810181811067ffffffffffffffff8211171561117357611172611223565b5b80604052505050565b6000611187826110cd565b91507fffffffffffffffffffffffffffffffffffffffffffffffffffffffffffffffff8214156111ba576111b96111c5565b5b600182019050919050565b7f4e487b7100000000000000000000000000000000000000000000000000000000600052601160045260246000fd5b7f4e487b7100000000000000000000000000000000000000000000000000000000600052602260045260246000fd5b7f4e487b7100000000000000000000000000000000000000000000000000000000600052604160045260246000fd5b6000601f19601f8301169050919050565b61126c8161108f565b811461127757600080fd5b50565b611283816110a1565b811461128e57600080fd5b5056fe608060405234801561001057600080fd5b50336000806101000a81548173ffffffffffffffffffffffffffffffffffffffff021916908373ffffffffffffffffffffffffffffffffffffffff1602179055506000600260008060009054906101000a900473ffffffffffffffffffffffffffffffffffffffff1673ffffffffffffffffffffffffffffffffffffffff1673ffffffffffffffffffffffffffffffffffffffff168152602001908152602001600020819055506001600360008060009054906101000a900473ffffffffffffffffffffffffffffffffffffffff1673ffffffffffffffffffffffffffffffffffffffff1673ffffffffffffffffffffffffffffffffffffffff16815260200190815260200160002060006101000a81548160ff02191690831515021790555060008060146101000a81548160ff021916908360ff160217905550600160008054906101000a900473ffffffffffffffffffffffffffffffffffffffff169080600181540180825580915050600190039060005260206000200160009091909190916101000a81548173ffffffffffffffffffffffffffffffffffffffff021916908373ffffffffffffffffffffffffffffffffffffffff160217905550610e5a806101dd6000396000f3fe6080604052600436106100c25760003560e01c8063ad721ff61161007f578063ba83d1a011610059578063ba83d1a0146102a4578063d0e30db0146102e1578063ed214fff146102ff578063f6a3d24e1461032a576100c2565b8063ad721ff614610211578063b34d7e8f1461023c578063b69ef8a814610279576100c2565b806305488a2c146100c7578063138fbe711461010457806327e235e31461012f5780632820aece1461016c5780632e1a7d4d146101a95780638da5cb5b146101e6575b600080fd5b3480156100d357600080fd5b506100ee60048036038101906100e99190610b0e565b610367565b6040516100fb9190610c6a565b60405180910390f35b34801561011057600080fd5b506101196103b0565b6040516101269190610c6a565b60405180910390f35b34801561013b57600080fd5b5061015660048036038101906101519190610b0e565b6103b8565b6040516101639190610c6a565b60405180910390f35b34801561017857600080fd5b50610193600480360381019061018e9190610b37565b6103d0565b6040516101a09190610c12565b60405180910390f35b3480156101b557600080fd5b506101d060048036038101906101cb9190610b37565b61040f565b6040516101dd9190610c6a565b60405180910390f35b3480156101f257600080fd5b506101fb610599565b6040516102089190610c12565b60405180910390f35b34801561021d57600080fd5b506102266105bd565b6040516102339190610c4f565b60405180910390f35b34801561024857600080fd5b50610263600480360381019061025e9190610b0e565b610613565b6040516102709190610c4f565b60405180910390f35b34801561028557600080fd5b5061028e610670565b60405161029b9190610c6a565b60405180910390f35b3480156102b057600080fd5b506102cb60048036038101906102c69190610b0e565b6106b7565b6040516102d89190610c6a565b60405180910390f35b6102e96108ee565b6040516102f69190610c6a565b60405180910390f35b34801561030b57600080fd5b50610314610a36565b6040516103219190610c2d565b60405180910390f35b34801561033657600080fd5b50610351600480360381019061034c9190610b0e565b610ac4565b60405161035e9190610c4f565b60405180910390f35b6000600260008373ffffffffffffffffffffffffffffffffffffffff1673ffffffffffffffffffffffffffffffffffffffff168152602001908152602001600020549050919050565b600047905090565b60026020528060005260406000206000915090505481565b600181815481106103e057600080fd5b906000526020600020016000915054906101000a900473ffffffffffffffffffffffffffffffffffffffff1681565b600060011515600360003373ffffffffffffffffffffffffffffffffffffffff1673ffffffffffffffffffffffffffffffffffffffff16815260200190815260200160002060009054906101000a900460ff1615151461046e57600080fd5b600260003373ffffffffffffffffffffffffffffffffffffffff1673ffffffffffffffffffffffffffffffffffffffff1681526020019081526020016000205482116105525781600260003373ffffffffffffffffffffffffffffffffffffffff1673ffffffffffffffffffffffffffffffffffffffff16815260200190815260200160002060008282546105039190610d14565b925050819055503373ffffffffffffffffffffffffffffffffffffffff166108fc839081150290604051600060405180830381858888f19350505050158015610550573d6000803e3d6000fd5b505b600260003373ffffffffffffffffffffffffffffffffffffffff1673ffffffffffffffffffffffffffffffffffffffff168152602001908152602001600020549050919050565b60008054906101000a900473ffffffffffffffffffffffffffffffffffffffff1681565b60003373ffffffffffffffffffffffffffffffffffffffff1660008054906101000a900473ffffffffffffffffffffffffffffffffffffffff1673ffffffffffffffffffffffffffffffffffffffff1614905090565b600060011515600360008473ffffffffffffffffffffffffffffffffffffffff1673ffffffffffffffffffffffffffffffffffffffff16815260200190815260200160002060009054906101000a900460ff161515149050919050565b6000600260003373ffffffffffffffffffffffffffffffffffffffff1673ffffffffffffffffffffffffffffffffffffffff16815260200190815260200160002054905090565b60008060009054906101000a900473ffffffffffffffffffffffffffffffffffffffff1673ffffffffffffffffffffffffffffffffffffffff163373ffffffffffffffffffffffffffffffffffffffff161461071257600080fd5b60001515600360008473ffffffffffffffffffffffffffffffffffffffff1673ffffffffffffffffffffffffffffffffffffffff16815260200190815260200160002060009054906101000a900460ff1615151461076f57600080fd5b6000601481819054906101000a900460ff168092919061078e90610d9d565b91906101000a81548160ff021916908360ff160217905550506001829080600181540180825580915050600190039060005260206000200160009091909190916101000a81548173ffffffffffffffffffffffffffffffffffffffff021916908373ffffffffffffffffffffffffffffffffffffffff1602179055506000600260008473ffffffffffffffffffffffffffffffffffffffff1673ffffffffffffffffffffffffffffffffffffffff168152602001908152602001600020819055506001600360008473ffffffffffffffffffffffffffffffffffffffff1673ffffffffffffffffffffffffffffffffffffffff16815260200190815260200160002060006101000a81548160ff021916908315150217905550600260008373ffffffffffffffffffffffffffffffffffffffff1673ffffffffffffffffffffffffffffffffffffffff168152602001908152602001600020549050919050565b600060011515600360003373ffffffffffffffffffffffffffffffffffffffff1673ffffffffffffffffffffffffffffffffffffffff16815260200190815260200160002060009054906101000a900460ff1615151461094d57600080fd5b34600260003373ffffffffffffffffffffffffffffffffffffffff1673ffffffffffffffffffffffffffffffffffffffff168152602001908152602001600020600082825461099c9190610cbe565b925050819055503373ffffffffffffffffffffffffffffffffffffffff167fa8126f7572bb1fdeae5b5aa9ec126438b91f658a07873f009d041ae690f3a193346040516109e99190610c6a565b60405180910390a2600260003373ffffffffffffffffffffffffffffffffffffffff1673ffffffffffffffffffffffffffffffffffffffff16815260200190815260200160002054905090565b60606001805480602002602001604051908101604052809291908181526020018280548015610aba57602002820191906000526020600020905b8160009054906101000a900473ffffffffffffffffffffffffffffffffffffffff1673ffffffffffffffffffffffffffffffffffffffff1681526020019060010190808311610a70575b5050505050905090565b60036020528060005260406000206000915054906101000a900460ff1681565b600081359050610af381610df6565b92915050565b600081359050610b0881610e0d565b92915050565b600060208284031215610b2057600080fd5b6000610b2e84828501610ae4565b91505092915050565b600060208284031215610b4957600080fd5b6000610b5784828501610af9565b91505092915050565b6000610b6c8383610b78565b60208301905092915050565b610b8181610d48565b82525050565b610b9081610d48565b82525050565b6000610ba182610c95565b610bab8185610cad565b9350610bb683610c85565b8060005b83811015610be7578151610bce8882610b60565b9750610bd983610ca0565b925050600181019050610bba565b5085935050505092915050565b610bfd81610d5a565b82525050565b610c0c81610d86565b82525050565b6000602082019050610c276000830184610b87565b92915050565b60006020820190508181036000830152610c478184610b96565b905092915050565b6000602082019050610c646000830184610bf4565b92915050565b6000602082019050610c7f6000830184610c03565b92915050565b6000819050602082019050919050565b600081519050919050565b6000602082019050919050565b600082825260208201905092915050565b6000610cc982610d86565b9150610cd483610d86565b9250827fffffffffffffffffffffffffffffffffffffffffffffffffffffffffffffffff03821115610d0957610d08610dc7565b5b828201905092915050565b6000610d1f82610d86565b9150610d2a83610d86565b925082821015610d3d57610d3c610dc7565b5b828203905092915050565b6000610d5382610d66565b9050919050565b60008115159050919050565b600073ffffffffffffffffffffffffffffffffffffffff82169050919050565b6000819050919050565b600060ff82169050919050565b6000610da882610d90565b915060ff821415610dbc57610dbb610dc7565b5b600182019050919050565b7f4e487b7100000000000000000000000000000000000000000000000000000000600052601160045260246000fd5b610dff81610d48565b8114610e0a57600080fd5b50565b610e1681610d86565b8114610e2157600080fd5b5056fea264697066735822122026bb7c3a38b9eb58255dd674dd0f59eb020d4c658bd8f2c6d04eb017961f94c864736f6c63430008010033a2646970667358221220f55f39cfb149977470978d9b55c87b798c44cbfeb5a6227fb4f418cf4bc05b7464736f6c63430008010033",
  "immutableReferences": {},
  "source": "// SPDX-License-Identifier: MIT\npragma solidity >=0.8.0;\n\nimport \"./SimpleBank.sol\";\n\ncontract PoolRecorder {\n    struct Pool {\n        string name;\n        string description;\n        address owner;\n        address PoolAddress;\n        bool visible;\n    }\n\n    address[] poolList;\n    mapping(address => Pool) public poolRecorded;\n\n    event PoolAdded(address poolAddress);\n\n    function createPool(\n        string memory _name,\n        string memory _description,\n        bool _visible\n    ) public returns(address) {\n        SimpleBank newPoolBank = new SimpleBank();\n        addPool(address(newPoolBank), msg.sender, _name, _description, _visible);\n        return address(newPoolBank);\n    }\n\n    function addPool(\n        address poolAddress,\n        address _owner,\n        string memory _name,\n        string memory _description,\n        bool _visible\n    ) public {\n        poolList.push(poolAddress);\n        poolRecorded[poolAddress] = Pool(\n            _name,\n            _description,\n            _owner,\n            poolAddress,\n            _visible\n        );\n        emit PoolAdded(poolAddress);\n    }\n\n    function removePool(address poolAddress) public {\n        for (uint256 index = 0; index < poolList.length; index++) {\n            if (poolList[index] == poolAddress) {\n                poolList[index] = poolList[poolList.length - 1];\n                delete poolList[poolList.length - 1];\n                break;\n            }\n        }\n    }\n\n    function getListPools() public view returns (address[] memory) {\n        return poolList;\n    }\n\n    function getPoolInfo(address poolAddress)\n        public\n        view\n        returns (Pool memory)\n    {\n        return poolRecorded[poolAddress];\n    }\n}\n",
  "sourcePath": "/home/eddine/Documents/blockchain/Ohreee/simple_bank/contracts/PoolRecorder.sol",
  "compiler": {
    "name": "solc",
    "version": "0.8.1+commit.df193b15.Emscripten.clang"
  },
  "schemaVersion": "3.3.3",
  "updatedAt": "2021-03-08T19:30:04.672Z",
  "devdoc": {
    "kind": "dev",
    "methods": {},
    "version": 1
  },
  "userdoc": {
    "kind": "user",
    "methods": {},
    "version": 1
  }
}