{
  "contractName": "SimpleBank",
  "abi": [
    {
      "inputs": [],
      "stateMutability": "nonpayable",
      "type": "constructor"
    },
    {
      "anonymous": false,
      "inputs": [
        {
          "indexed": true,
          "internalType": "address",
          "name": "accountAddress",
          "type": "address"
        },
        {
          "indexed": false,
          "internalType": "uint256",
          "name": "amount",
          "type": "uint256"
        }
      ],
      "name": "LogDepositMade",
      "type": "event"
    },
    {
      "inputs": [
        {
          "internalType": "address",
          "name": "",
          "type": "address"
        }
      ],
      "name": "balances",
      "outputs": [
        {
          "internalType": "uint256",
          "name": "",
          "type": "uint256"
        }
      ],
      "stateMutability": "view",
      "type": "function"
    },
    {
      "inputs": [
        {
          "internalType": "address",
          "name": "",
          "type": "address"
        }
      ],
      "name": "exists",
      "outputs": [
        {
          "internalType": "bool",
          "name": "",
          "type": "bool"
        }
      ],
      "stateMutability": "view",
      "type": "function"
    },
    {
      "inputs": [],
      "name": "owner",
      "outputs": [
        {
          "internalType": "address",
          "name": "",
          "type": "address"
        }
      ],
      "stateMutability": "view",
      "type": "function"
    },
    {
      "inputs": [
        {
          "internalType": "uint256",
          "name": "",
          "type": "uint256"
        }
      ],
      "name": "participantsList",
      "outputs": [
        {
          "internalType": "address",
          "name": "",
          "type": "address"
        }
      ],
      "stateMutability": "view",
      "type": "function"
    },
    {
      "inputs": [
        {
          "internalType": "address",
          "name": "participant",
          "type": "address"
        }
      ],
      "name": "enroll",
      "outputs": [
        {
          "internalType": "uint256",
          "name": "",
          "type": "uint256"
        }
      ],
      "stateMutability": "nonpayable",
      "type": "function"
    },
    {
      "inputs": [],
      "name": "deposit",
      "outputs": [
        {
          "internalType": "uint256",
          "name": "",
          "type": "uint256"
        }
      ],
      "stateMutability": "payable",
      "type": "function"
    },
    {
      "inputs": [
        {
          "internalType": "uint256",
          "name": "withdrawAmount",
          "type": "uint256"
        }
      ],
      "name": "withdraw",
      "outputs": [
        {
          "internalType": "uint256",
          "name": "remainingBal",
          "type": "uint256"
        }
      ],
      "stateMutability": "nonpayable",
      "type": "function"
    },
    {
      "inputs": [],
      "name": "balance",
      "outputs": [
        {
          "internalType": "uint256",
          "name": "",
          "type": "uint256"
        }
      ],
      "stateMutability": "view",
      "type": "function"
    },
    {
      "inputs": [],
      "name": "depositsBalance",
      "outputs": [
        {
          "internalType": "uint256",
          "name": "",
          "type": "uint256"
        }
      ],
      "stateMutability": "view",
      "type": "function"
    },
    {
      "inputs": [],
      "name": "is_owner",
      "outputs": [
        {
          "internalType": "bool",
          "name": "",
          "type": "bool"
        }
      ],
      "stateMutability": "view",
      "type": "function"
    },
    {
      "inputs": [
        {
          "internalType": "address",
          "name": "participant",
          "type": "address"
        }
      ],
      "name": "balanceParticipant",
      "outputs": [
        {
          "internalType": "uint256",
          "name": "",
          "type": "uint256"
        }
      ],
      "stateMutability": "view",
      "type": "function"
    },
    {
      "inputs": [
        {
          "internalType": "address",
          "name": "participant",
          "type": "address"
        }
      ],
      "name": "is_allowed",
      "outputs": [
        {
          "internalType": "bool",
          "name": "",
          "type": "bool"
        }
      ],
      "stateMutability": "view",
      "type": "function"
    },
    {
      "inputs": [],
      "name": "getParticipantList",
      "outputs": [
        {
          "internalType": "address[]",
          "name": "",
          "type": "address[]"
        }
      ],
      "stateMutability": "view",
      "type": "function"
    }
  ],
  "bytecode": "0x608060405234801561001057600080fd5b50336000806101000a81548173ffffffffffffffffffffffffffffffffffffffff021916908373ffffffffffffffffffffffffffffffffffffffff1602179055506000600260008060009054906101000a900473ffffffffffffffffffffffffffffffffffffffff1673ffffffffffffffffffffffffffffffffffffffff1673ffffffffffffffffffffffffffffffffffffffff168152602001908152602001600020819055506001600360008060009054906101000a900473ffffffffffffffffffffffffffffffffffffffff1673ffffffffffffffffffffffffffffffffffffffff1673ffffffffffffffffffffffffffffffffffffffff16815260200190815260200160002060006101000a81548160ff02191690831515021790555060008060146101000a81548160ff021916908360ff160217905550600160008054906101000a900473ffffffffffffffffffffffffffffffffffffffff169080600181540180825580915050600190039060005260206000200160009091909190916101000a81548173ffffffffffffffffffffffffffffffffffffffff021916908373ffffffffffffffffffffffffffffffffffffffff160217905550610e5a806101dd6000396000f3fe6080604052600436106100c25760003560e01c8063ad721ff61161007f578063ba83d1a011610059578063ba83d1a0146102a4578063d0e30db0146102e1578063ed214fff146102ff578063f6a3d24e1461032a576100c2565b8063ad721ff614610211578063b34d7e8f1461023c578063b69ef8a814610279576100c2565b806305488a2c146100c7578063138fbe711461010457806327e235e31461012f5780632820aece1461016c5780632e1a7d4d146101a95780638da5cb5b146101e6575b600080fd5b3480156100d357600080fd5b506100ee60048036038101906100e99190610b0e565b610367565b6040516100fb9190610c6a565b60405180910390f35b34801561011057600080fd5b506101196103b0565b6040516101269190610c6a565b60405180910390f35b34801561013b57600080fd5b5061015660048036038101906101519190610b0e565b6103b8565b6040516101639190610c6a565b60405180910390f35b34801561017857600080fd5b50610193600480360381019061018e9190610b37565b6103d0565b6040516101a09190610c12565b60405180910390f35b3480156101b557600080fd5b506101d060048036038101906101cb9190610b37565b61040f565b6040516101dd9190610c6a565b60405180910390f35b3480156101f257600080fd5b506101fb610599565b6040516102089190610c12565b60405180910390f35b34801561021d57600080fd5b506102266105bd565b6040516102339190610c4f565b60405180910390f35b34801561024857600080fd5b50610263600480360381019061025e9190610b0e565b610613565b6040516102709190610c4f565b60405180910390f35b34801561028557600080fd5b5061028e610670565b60405161029b9190610c6a565b60405180910390f35b3480156102b057600080fd5b506102cb60048036038101906102c69190610b0e565b6106b7565b6040516102d89190610c6a565b60405180910390f35b6102e96108ee565b6040516102f69190610c6a565b60405180910390f35b34801561030b57600080fd5b50610314610a36565b6040516103219190610c2d565b60405180910390f35b34801561033657600080fd5b50610351600480360381019061034c9190610b0e565b610ac4565b60405161035e9190610c4f565b60405180910390f35b6000600260008373ffffffffffffffffffffffffffffffffffffffff1673ffffffffffffffffffffffffffffffffffffffff168152602001908152602001600020549050919050565b600047905090565b60026020528060005260406000206000915090505481565b600181815481106103e057600080fd5b906000526020600020016000915054906101000a900473ffffffffffffffffffffffffffffffffffffffff1681565b600060011515600360003373ffffffffffffffffffffffffffffffffffffffff1673ffffffffffffffffffffffffffffffffffffffff16815260200190815260200160002060009054906101000a900460ff1615151461046e57600080fd5b600260003373ffffffffffffffffffffffffffffffffffffffff1673ffffffffffffffffffffffffffffffffffffffff1681526020019081526020016000205482116105525781600260003373ffffffffffffffffffffffffffffffffffffffff1673ffffffffffffffffffffffffffffffffffffffff16815260200190815260200160002060008282546105039190610d14565b925050819055503373ffffffffffffffffffffffffffffffffffffffff166108fc839081150290604051600060405180830381858888f19350505050158015610550573d6000803e3d6000fd5b505b600260003373ffffffffffffffffffffffffffffffffffffffff1673ffffffffffffffffffffffffffffffffffffffff168152602001908152602001600020549050919050565b60008054906101000a900473ffffffffffffffffffffffffffffffffffffffff1681565b60003373ffffffffffffffffffffffffffffffffffffffff1660008054906101000a900473ffffffffffffffffffffffffffffffffffffffff1673ffffffffffffffffffffffffffffffffffffffff1614905090565b600060011515600360008473ffffffffffffffffffffffffffffffffffffffff1673ffffffffffffffffffffffffffffffffffffffff16815260200190815260200160002060009054906101000a900460ff161515149050919050565b6000600260003373ffffffffffffffffffffffffffffffffffffffff1673ffffffffffffffffffffffffffffffffffffffff16815260200190815260200160002054905090565b60008060009054906101000a900473ffffffffffffffffffffffffffffffffffffffff1673ffffffffffffffffffffffffffffffffffffffff163373ffffffffffffffffffffffffffffffffffffffff161461071257600080fd5b60001515600360008473ffffffffffffffffffffffffffffffffffffffff1673ffffffffffffffffffffffffffffffffffffffff16815260200190815260200160002060009054906101000a900460ff1615151461076f57600080fd5b6000601481819054906101000a900460ff168092919061078e90610d9d565b91906101000a81548160ff021916908360ff160217905550506001829080600181540180825580915050600190039060005260206000200160009091909190916101000a81548173ffffffffffffffffffffffffffffffffffffffff021916908373ffffffffffffffffffffffffffffffffffffffff1602179055506000600260008473ffffffffffffffffffffffffffffffffffffffff1673ffffffffffffffffffffffffffffffffffffffff168152602001908152602001600020819055506001600360008473ffffffffffffffffffffffffffffffffffffffff1673ffffffffffffffffffffffffffffffffffffffff16815260200190815260200160002060006101000a81548160ff021916908315150217905550600260008373ffffffffffffffffffffffffffffffffffffffff1673ffffffffffffffffffffffffffffffffffffffff168152602001908152602001600020549050919050565b600060011515600360003373ffffffffffffffffffffffffffffffffffffffff1673ffffffffffffffffffffffffffffffffffffffff16815260200190815260200160002060009054906101000a900460ff1615151461094d57600080fd5b34600260003373ffffffffffffffffffffffffffffffffffffffff1673ffffffffffffffffffffffffffffffffffffffff168152602001908152602001600020600082825461099c9190610cbe565b925050819055503373ffffffffffffffffffffffffffffffffffffffff167fa8126f7572bb1fdeae5b5aa9ec126438b91f658a07873f009d041ae690f3a193346040516109e99190610c6a565b60405180910390a2600260003373ffffffffffffffffffffffffffffffffffffffff1673ffffffffffffffffffffffffffffffffffffffff16815260200190815260200160002054905090565b60606001805480602002602001604051908101604052809291908181526020018280548015610aba57602002820191906000526020600020905b8160009054906101000a900473ffffffffffffffffffffffffffffffffffffffff1673ffffffffffffffffffffffffffffffffffffffff1681526020019060010190808311610a70575b5050505050905090565b60036020528060005260406000206000915054906101000a900460ff1681565b600081359050610af381610df6565b92915050565b600081359050610b0881610e0d565b92915050565b600060208284031215610b2057600080fd5b6000610b2e84828501610ae4565b91505092915050565b600060208284031215610b4957600080fd5b6000610b5784828501610af9565b91505092915050565b6000610b6c8383610b78565b60208301905092915050565b610b8181610d48565b82525050565b610b9081610d48565b82525050565b6000610ba182610c95565b610bab8185610cad565b9350610bb683610c85565b8060005b83811015610be7578151610bce8882610b60565b9750610bd983610ca0565b925050600181019050610bba565b5085935050505092915050565b610bfd81610d5a565b82525050565b610c0c81610d86565b82525050565b6000602082019050610c276000830184610b87565b92915050565b60006020820190508181036000830152610c478184610b96565b905092915050565b6000602082019050610c646000830184610bf4565b92915050565b6000602082019050610c7f6000830184610c03565b92915050565b6000819050602082019050919050565b600081519050919050565b6000602082019050919050565b600082825260208201905092915050565b6000610cc982610d86565b9150610cd483610d86565b9250827fffffffffffffffffffffffffffffffffffffffffffffffffffffffffffffffff03821115610d0957610d08610dc7565b5b828201905092915050565b6000610d1f82610d86565b9150610d2a83610d86565b925082821015610d3d57610d3c610dc7565b5b828203905092915050565b6000610d5382610d66565b9050919050565b60008115159050919050565b600073ffffffffffffffffffffffffffffffffffffffff82169050919050565b6000819050919050565b600060ff82169050919050565b6000610da882610d90565b915060ff821415610dbc57610dbb610dc7565b5b600182019050919050565b7f4e487b7100000000000000000000000000000000000000000000000000000000600052601160045260246000fd5b610dff81610d48565b8114610e0a57600080fd5b50565b610e1681610d86565b8114610e2157600080fd5b5056fea264697066735822122026bb7c3a38b9eb58255dd674dd0f59eb020d4c658bd8f2c6d04eb017961f94c864736f6c63430008010033",
  "immutableReferences": {},
  "source": "// SPDX-License-Identifier: MIT\npragma solidity >=0.8.0;\n\ncontract SimpleBank {\n    address public owner;\n    uint8 private participantCount;\n    address[] public participantsList;\n    mapping(address => uint256) public balances;\n    mapping(address => bool) public exists;\n\n    // Log the event about a deposit being made by an address and its amount\n    event LogDepositMade(address indexed accountAddress, uint256 amount);\n\n    constructor() {\n        /* Set the owner to the creator of this contract */\n        owner = msg.sender;\n        balances[owner] = 0;\n        exists[owner] = true;\n        participantCount = 0;\n        participantsList.push(owner);\n    }\n\n    /// @notice Enroll a customer with the bank,\n    /// Only the owner can enroll a participant\n    /// @return The balance of the user after enrolling\n    function enroll(address participant) public returns (uint256) {\n        require(msg.sender == owner);\n        require(exists[participant] == false);\n        participantCount++;\n        participantsList.push(participant);\n        balances[participant] = 0;\n        exists[participant] = true;\n        return balances[participant];\n    }\n\n    /// @notice Deposit ether into bank, requires method is \"payable\"\n    /// @return The balance of the user after the deposit is made\n    function deposit() public payable returns (uint256) {\n        require(exists[msg.sender] == true);\n        balances[msg.sender] += msg.value;\n        emit LogDepositMade(msg.sender, msg.value);\n        return balances[msg.sender];\n    }\n\n    /// notice Withdraw ether from bank\n    /// return The balance remaining for the user\n    function withdraw(uint256 withdrawAmount)\n        public\n        returns (uint256 remainingBal)\n    {\n        require(exists[msg.sender] == true);\n        // Check enough balance available, otherwise just return balance\n        if (withdrawAmount <= balances[msg.sender]) {\n            balances[msg.sender] -= withdrawAmount;\n            payable(msg.sender).transfer(withdrawAmount);\n        }\n        return balances[msg.sender];\n    }\n\n    /// @notice Just reads balance of the account requesting, so \"constant\"\n    /// @return The balance of the user\n    function balance() public view returns (uint256) {\n        return balances[msg.sender];\n    }\n\n    /// @return The balance of the Simple Bank contract\n    function depositsBalance() public view returns (uint256) {\n        return address(this).balance;\n    }\n\n    function is_owner() public view returns (bool) {\n        return owner == msg.sender;\n    }\n\n    function balanceParticipant(address participant) public view returns(uint256) {\n        return balances[participant];\n    }\n\n    function is_allowed(address participant) public view returns(bool) {\n        return exists[participant] == true;\n    }\n\n    /// @return the participant list\n    function getParticipantList() public view returns (address[] memory) {\n        return participantsList;\n    }\n}\n",
  "sourcePath": "/home/eddine/Documents/blockchain/Ohreee/simple_bank/contracts/SimpleBank.sol",
  "compiler": {
    "name": "solc",
    "version": "0.8.1+commit.df193b15.Emscripten.clang"
  },
  "schemaVersion": "3.3.3",
  "updatedAt": "2021-03-08T19:30:04.674Z",
  "devdoc": {
    "kind": "dev",
    "methods": {
      "balance()": {
        "returns": {
          "_0": "The balance of the user"
        }
      },
      "deposit()": {
        "returns": {
          "_0": "The balance of the user after the deposit is made"
        }
      },
      "depositsBalance()": {
        "returns": {
          "_0": "The balance of the Simple Bank contract"
        }
      },
      "enroll(address)": {
        "returns": {
          "_0": "The balance of the user after enrolling"
        }
      },
      "getParticipantList()": {
        "returns": {
          "_0": "the participant list"
        }
      }
    },
    "version": 1
  },
  "userdoc": {
    "kind": "user",
    "methods": {
      "balance()": {
        "notice": "Just reads balance of the account requesting, so \"constant\""
      },
      "deposit()": {
        "notice": "Deposit ether into bank, requires method is \"payable\""
      },
      "enroll(address)": {
        "notice": "Enroll a customer with the bank, Only the owner can enroll a participant"
      },
      "withdraw(uint256)": {
        "notice": "notice Withdraw ether from bank return The balance remaining for the user"
      }
    },
    "version": 1
  }
}